:100000000C942A000C943F000C943F000C943F0089
:100010000C943F000C943F000C943F000C943F0064
:100020000C943F000C943F000C943F000C943F0054
:100030000C943F000C943F000C943F000C943F0044
:100040000C943F000C943F000C943F000C943F0034
:100050000C943F0011241FBECFE5D8E0DEBFCDBF1A
:1000600010E0A0E6B0E0E6ECFFE202C005900D92E1
:10007000A239B107D9F70E94DF130C94E1170C9451
:100080000000CF93DF93CDB7DEB78BE390E02FEF87
:10009000FC01208388E390E02FEFFC01208385E3BF
:1000A00090E02FEFFC01208382E390E02FEFFC0132
:1000B00020838AE390E02FEFFC01208387E390E028
:1000C0002FEFFC01208384E390E02FEFFC012083DD
:1000D00081E390E020EFFC0120830000DF91CF91CD
:1000E0000895CF93DF9300D00F92CDB7DEB78A8308
:1000F0006B8319828A818F3111F008F00DC18A81DA
:10010000882F90E08F31910511F00CF007C18831F4
:1001100091050CF0C5C08731910511F00CF0FEC0BF
:10012000803191050CF080C08730910509F01CF4F6
:10013000992344F4F3C008978730910511F008F033
:10014000EDC036C08B818130B1F48BE390E0FC01CF
:100150008081482F8A81282F30E081E090E002C022
:10016000880F991F2A95E2F7242F282B8BE390E024
:10017000FC012083D3C08B818823B9F48BE390E00A
:10018000FC018081482F8A81282F30E081E090E0B7
:1001900002C0880F991F2A95E2F78095242F282303
:1001A0008BE390E0FC012083B9C081E08983B6C075
:1001B0008B818130C9F488E390E0FC018081482F75
:1001C0008A81882F90E09C012770332781E090E09E
:1001D00002C0880F991F2A95E2F7242F282B88E365
:1001E00090E0FC0120839AC08B818823D1F488E3BE
:1001F00090E0FC018081482F8A81882F90E09C014B
:100200002770332781E090E002C0880F991F2A955C
:10021000E2F78095242F282388E390E0FC012083D7
:100220007DC081E089837AC08B818130C9F485E308
:1002300090E0FC018081482F8A81882F90E09C010A
:100240002770332781E090E002C0880F991F2A951C
:10025000E2F7242F282B85E390E0FC0120835EC089
:100260008B818823D1F485E390E0FC018081482FC5
:100270008A81882F90E09C012770332781E090E0ED
:1002800002C0880F991F2A95E2F78095242F282312
:1002900085E390E0FC01208341C081E089833EC07A
:1002A0008B818130C9F482E390E0FC018081482F8A
:1002B0008A81882F90E09C012770332781E090E0AD
:1002C00002C0880F991F2A95E2F7242F282B82E37A
:1002D00090E0FC01208322C08B818823D1F482E34B
:1002E00090E0FC018081482F8A81882F90E09C015A
:1002F0002770332781E090E002C0880F991F2A956C
:10030000E2F78095242F282382E390E0FC012083EC
:1003100005C081E0898302C082E0898389810F90D2
:100320000F900F90DF91CF910895CF93DF9300D07E
:1003300000D0CDB7DEB78A837C836B8319828B8133
:100340009C81009709F47FC08A81882F90E08F31CB
:10035000910511F00CF074C0883191050CF059C072
:100360008731910511F00CF06BC080319105D4F507
:100370008730910509F01CF4992344F461C0089773
:100380008730910511F008F05BC015C089E390E05B
:10039000FC018081882F90E02A81222F30E002C06A
:1003A000959587952A95E2F7282F21708B819C815E
:1003B000FC0120834AC086E390E0FC018081882F05
:1003C00090E02A81222F30E02770332702C09595D4
:1003D00087952A95E2F7282F21708B819C81FC015B
:1003E000208333C083E390E0FC018081882F90E07C
:1003F0002A81222F30E02770332702C095958795F8
:100400002A95E2F7282F21708B819C81FC012083A3
:100410001CC080E390E0FC018081882F90E02A815D
:10042000222F30E02770332702C0959587952A95B3
:10043000E2F7282F21708B819C81FC01208305C06D
:1004400082E0898302C081E0898389810F900F90C7
:100450000F900F90DF91CF910895CF93DF9300D04D
:1004600000D000D00F92CDB7DEB79C838B837E8304
:100470006D834F8319821A821A821CC08A81882F49
:1004800090E02D813E81820F931FFC0140818A8183
:10049000882F90E02B813C81820F931FFC0180818B
:1004A000642F0E94710089838981882341F48A81A5
:1004B0008F5F8A839A818F81981700F301C00000B3
:1004C000898127960FB6F894DEBF0FBECDBFDF91AE
:1004D000CF910895CF93DF9300D00F92CDB7DEB7C1
:1004E0008A836B8319826B818A810E947100898360
:1004F00089810F900F900F90DF91CF910895CF9346
:10050000DF9300D00F92CDB7DEB78A836B83198259
:100510008A81882F90E08330910519F1833091050D
:1005200009F02CF582309105B1F08230910509F087
:10053000F4F4009721F08130910539F018C08BE375
:1005400090E02B81FC01208315C088E390E02B8193
:10055000FC0120830FC085E390E02B81FC01208308
:1005600009C082E390E02B81FC01208303C082E07C
:100570008983000089810F900F900F90DF91CF91B8
:100580000895CF93DF930F92CDB7DEB7198219820A
:100590000DC08981882F90E08C599F4FFC0180818C
:1005A00061E00E94710089818F5F89838981833036
:1005B00081F378F319820DC08981882F90E0805AE9
:1005C0009F4FFC01808161E00E946A0289818F5FF8
:1005D00089838981833081F378F3000000000F90D4
:1005E000DF91CF910895CF93DF9300D000D0CDB7A6
:1005F000DEB719821A821C828FEF8B83198256C054
:100600008981882F90E08C599F4FFC01808160E0A8
:100610000E9471001A8236C08A81882F90E0805A29
:100620009F4FFC012081CE010496BC01822F0E94C5
:1006300095018C81882319F50DC08A81882F90E05F
:10064000805A9F4FFC012081CE010496BC01822F6D
:100650000E9495018C81882381F38981282F30E0C5
:100660008A81882F90E0220F331F220F331F820FC1
:10067000931F88599F4FFC0180818B8307C08A811B
:100680008F5F8A838A81833039F230F28981882FA3
:1006900090E08C599F4FFC01808161E00E947100C5
:1006A0008B818F3F49F489818F5F89838981833072
:1006B00009F008F4A5CF01C000008B810F900F90C6
:1006C0000F900F90DF91CF9108950F931F93CF93C9
:1006D000DF93CDB7DEB7C453D1400FB6F894DEBF79
:1006E0000FBECDBF19821A8219820C94CD0C80E006
:1006F00090E0A0EFB1E48B839C83AD83BE8320E0C8
:1007000030E04AEF54E46B817C818D819E810E94B0
:100710004C17CB55DF4F688379838A839B83C55AF7
:10072000D040CB55DF4F88819981AA81BB81C55AC2
:10073000D0408F839887A987BA8720E030E040E8CF
:100740005FE36F81788589859A850E94C616882324
:100750002CF481E090E09C878B8776C020E03FEF0F
:100760004FE757E46F81788589859A850E944717FE
:10077000882309F00CF452C020E030E040E251E45C
:100780006B817C818D819E810E944C17C755DF4F04
:10079000688379838A839B83C95AD040C755DF4FCA
:1007A00088819981AA81BB81C95AD040CF57DF4F38
:1007B00088839983AA83BB83C158D040CF57DF4F2A
:1007C000688179818A819B81C158D0400E94CB1673
:1007D000C355DF4F688379838A839B83CD5AD0408A
:1007E000C355DF4FA881B981CD5AD040BC87AB87B4
:1007F00010C088EC90E09E878D878D859E8501973F
:10080000F1F79E878D8700008B859C8501979C87DB
:100810008B878B859C85009761F721C06F817885D8
:1008200089859A850E94CB16CF54DF4F68837983E0
:100830008A839B83C15BD040CF54DF4FE881F9812D
:10084000C15BD040FC87EB878B859C85988B8F871D
:100850008F8598890197F1F7988B8F8700008981A0
:10086000282F30E04DE0429FC001439F900D11249E
:100870008D579F4FDC018C91813009F0BEC380E31E
:100880008A838981282F30E04DE0429FC001439F39
:10089000900D11248C579F4FFC0180818170882F0F
:1008A00090E0880F991F880F991F880F991F582F64
:1008B0008981282F30E04DE0429FC001439F900D79
:1008C00011248C579F4FDC018C9185FB882780F980
:1008D000882F90E0880F991F880F991F952F982BCC
:1008E0008A81892B8A836A8189810E94E90F80E04D
:1008F00090E0A0E8BFE38BAF9CAFADAFBEAF8E0181
:10090000015C1F4F20E030E04AEF54E46BAD7CAD5A
:100910008DAD9EAD0E944C17CB54DF4F6883798319
:100920008A839B83C55BD040CB54DF4F88819981FC
:10093000AA81BB81C55BD040F80180839183A283EB
:10094000B383CE01CF9620E030E040E85FE3DC01E6
:100950006D917D918D919C910E94C61688234CF4D7
:10096000CE018D5B9F4F21E030E0FC01318320837D
:100970009FC0CE01CF9620E03FEF4FE757E4DC0168
:100980006D917D918D919C910E944717882309F06C
:100990000CF471C020E030E040E251E46BAD7CAD7E
:1009A0008DAD9EAD0E944C17C754DF4F688379838D
:1009B0008A839B83C95BD040C754DF4F888199816C
:1009C000AA81BB81C95BD040CF56DF4F8883998312
:1009D000AA83BB83C159D0408E010D5B1F4FCF56F8
:1009E000DF4F688179818A819B81C159D0400E9403
:1009F000CB16C354DF4F688379838A839B83CD5B97
:100A0000D040C354DF4FE881F981CD5BD040D8019D
:100A10001196FC93EE9326C0CE018B5B9F4F28EC82
:100A200030E0DC012D933C93CE018B5B9F4FFC01AA
:100A3000808191810197F1F79E012B5B3F4FD90196
:100A40008D939C930000CE018D5B9F4F9E012D5B8B
:100A50003F4FF9012081318121503109DC0111968C
:100A60003C932E93CE018D5B9F4FFC018081918141
:100A7000009791F638C08E010D5B1F4FCE01CF96C7
:100A8000DC016D917D918D919C910E94CB16CF538D
:100A9000DF4F688379838A839B83C15CD040CF53C7
:100AA000DF4F88819981C15CD040F80191838083B8
:100AB000CE01895B9F4F9E012D5B3F4FD9012D9148
:100AC0003C91FC0131832083CE01895B9F4FDC0187
:100AD0008D919C910197F1F79E01295B3F4FF901A0
:100AE0009183808300008CE08A838981282F30E005
:100AF0004DE0429FC001439F900D11248C579F4FA2
:100B0000DC018C9182FB882780F9882F90E0880F88
:100B1000991F582F8981282F30E04DE0429FC00156
:100B2000439F900D11248C579F4FFC018081869527
:100B30008170952F982B8A81892B8A836A8189817C
:100B40000E94E90F80E090E0A0E8BFE38DA79EA798
:100B5000AFA7B8AB20E030E04AEF54E46DA57EA526
:100B60008FA598A90E944C17CB53DF4F68837983D8
:100B70008A839B83C55CD040CB53DF4F88819981AA
:100B8000AA81BB81C55CD04089AB9AABABABBCAB97
:100B900020E030E040E85FE369A97AA98BA99CA92D
:100BA0000E94C61688232CF481E090E09EAB8DABAA
:100BB00076C020E03FEF4FE757E469A97AA98BA9F7
:100BC0009CA90E944717882309F00CF452C020E02A
:100BD00030E040E251E46DA57EA58FA598A90E9462
:100BE0004C17C753DF4F688379838A839B83C95C23
:100BF000D040C753DF4F88819981AA81BB81C95CEE
:100C0000D040C357DF4F88839983AA83BB83CD58D5
:100C1000D040C357DF4F688179818A819B81CD584D
:100C2000D0400E94CB16C353DF4F688379838A83F9
:100C30009B83CD5CD040C353DF4FA881B981CD5C8D
:100C4000D040BEABADAB10C088EC90E098AF8FAB9E
:100C50008FA998AD0197F1F798AF8FAB00008DA9E0
:100C60009EA901979EAB8DAB8DA99EA9009761F7B8
:100C700021C069A97AA98BA99CA90E94CB16CF5241
:100C8000DF4F688379838A839B83C15DD040CF52D5
:100C9000DF4FE881F981C15DD040FEABEDAB8DA99E
:100CA0009EA99AAF89AF89AD9AAD0197F1F79AAF36
:100CB00089AF000061E089810E94E90F80E090E047
:100CC000A0E0B0E48F8F98A3A9A3BAA320E030E0FE
:100CD0004AEF54E46F8D78A189A19AA10E944C1724
:100CE000CB52DF4F688379838A839B83C55DD04075
:100CF000CB52DF4F88819981AA81BB81C55DD040ED
:100D00008BA39CA3ADA3BEA320E030E040E85FE34B
:100D10006BA17CA18DA19EA10E94C61688232CF4F4
:100D200081E090E098A78FA376C020E03FEF4FE7E7
:100D300057E46BA17CA18DA19EA10E944717882337
:100D400009F00CF452C020E030E040E251E46F8D35
:100D500078A189A19AA10E944C17C752DF4F6883DE
:100D600079838A839B83C95DD040C752DF4F8881D6
:100D70009981AA81BB81C95DD040C757DF4F888365
:100D80009983AA83BB83C958D040C757DF4F688176
:100D900079818A819B81C958D0400E94CB16C35269
:100DA000DF4F688379838A839B83CD5DD040C352B4
:100DB000DF4FA881B981CD5DD040B8A7AFA310C0E7
:100DC00088EC90E09AA789A789A59AA50197F1F7E1
:100DD0009AA789A700008FA198A5019798A78FA32C
:100DE0008FA198A5009761F721C06BA17CA18DA16F
:100DF0009EA10E94CB16CF51DF4F688379838A83EF
:100E00009B83C15ED040CF51DF4FE881F981C15E45
:100E1000D040F8A7EFA38FA198A59CA78BA78BA57F
:100E20009CA50197F1F79CA78BA7000084E08A831B
:100E30008981282F30E04DE0429FC001439F900DF3
:100E400011248C579F4FDC018C9183FB882780F9FC
:100E5000882F90E0880F991F582F8981282F30E024
:100E60004DE0429FC001439F900D11248C579F4F2E
:100E7000FC01808182958170952F982B8A81892B26
:100E80008A836A8189810E94E90F80E090E0A0E86E
:100E9000BFE3898B9A8BAB8BBC8B20E030E04AEFB1
:100EA00054E469897A898B899C890E944C17CB51BB
:100EB000DF4F688379838A839B83C55ED040CB51A3
:100EC000DF4F88819981AA81BB81C55ED0408D8B1F
:100ED0009E8BAF8BB88F20E030E040E85FE36D89F8
:100EE0007E898F89988D0E94C61688232CF481E014
:100EF00090E09A8F898F76C020E03FEF4FE757E46C
:100F00006D897E898F89988D0E944717882309F003
:100F10000CF452C020E030E040E251E469897A8963
:100F20008B899C890E944C17C751DF4F6883798356
:100F30008A839B83C95ED040C751DF4F88819981E6
:100F4000AA81BB81C95ED040CB57DF4F888399838C
:100F5000AA83BB83C558D040CB57DF4F68817981C6
:100F60008A819B81C558D0400E94CB16C351DF4F68
:100F7000688379838A839B83CD5ED040C351DF4FE2
:100F8000A881B981CD5ED040BA8FA98F10C088ECFE
:100F900090E09C8F8B8F8B8D9C8D0197F1F79C8FB0
:100FA0008B8F0000898D9A8D01979A8F898F898DFB
:100FB0009A8D009761F7EEC46D897E898F89988D2F
:100FC0000E94CB16CF50DF4F688379838A839B833F
:100FD000C15FD040CF50DF4FE881F981C15FD04081
:100FE000FA8FE98F898D9A8D9E8F8D8F8D8D9E8D35
:100FF0000197F1F79E8F8D8FCDC482E08A836A813D
:1010000089810E94E90F80E28A838981282F30E05C
:101010004DE0429FC001439F900D11248C579F4F7C
:10102000DC018C918170882F90E0880F991F880FC8
:10103000991F880F991F582F8981282F30E04DE084
:10104000429FC001439F900D11248C579F4FFC017C
:10105000808185FB882780F9882F90E0880F991F71
:10106000880F991F952F982B8A81892B8A836A81F3
:1010700089810E94E90F9E012D583F4F80E090E04A
:10108000A0E8BFE3F90180839183A283B3838E013B
:1010900009581F4FCE018D589F4F20E030E04AEF96
:1010A00054E4DC016D917D918D919C910E944C17CF
:1010B000CB50DF4F688379838A839B83C55FD040A1
:1010C000CB50DF4F88819981AA81BB81C55FD04019
:1010D000F80180839183A283B383CE0189589F4F07
:1010E00020E030E040E85FE3DC016D917D918D917F
:1010F0009C910E94C61688234CF4CE0185589F4FC0
:1011000021E030E0FC0131832083A5C0CE01895865
:101110009F4F20E03FEF4FE757E4DC016D917D9159
:101120008D919C910E944717882309F00CF475C09B
:10113000CE018D589F4F20E030E040E251E4FC01A9
:1011400060817181828193810E944C17C750DF4F6B
:10115000688379838A839B83C95FD040C750DF4F00
:1011600088819981AA81BB81C95FD040CF55DF4F6B
:1011700088839983AA83BB83C15AD0408E010558C6
:101180001F4FCF55DF4F688179818A819B81C15A7A
:10119000D0400E94CB16C350DF4F688379838A8387
:1011A0009B83CD5FD040C350DF4FE881F981CD5F95
:1011B000D040D8011196FC93EE9326C0CE018358FF
:1011C0009F4F28EC30E0DC012D933C93CE018358F7
:1011D0009F4FFC01808191810197F1F79E01235877
:1011E0003F4FD9018D939C930000CE0185589F4FAE
:1011F0009E0125583F4FF90120813181215031094D
:10120000DC0111963C932E93CE0185589F4FFC0133
:1012100080819181009791F639C08E0105581F4F4A
:10122000CE0189589F4FDC016D917D918D919C91EC
:101230000E94CB16CF5FDE4F688379838A839B83BE
:10124000C150D140CF5FDE4F88819981C150D140DC
:10125000F80191838083CE0181589F4F9E012558CC
:101260003F4FD9012D913C91FC0131832083CE0168
:1012700081589F4FDC018D919C910197F1F79E0160
:1012800021583F4FF9019183808300008CE08A83CD
:101290008981282F30E04DE0429FC001439F900D8F
:1012A00011248C579F4FDC018C9182FB882780F999
:1012B000882F90E0880F991F582F8981282F30E0C0
:1012C0004DE0429FC001439F900D11248C579F4FCA
:1012D000FC01808186958170952F982B8A81892BBE
:1012E0008A836A8189810E94E90F9E012B593F4FB1
:1012F00080E090E0A0E8BFE3F90180839183A283BE
:10130000B3838E0107591F4FCE018B599F4F20E0A9
:1013100030E04AEF54E4DC016D917D918D919C9118
:101320000E944C17CB5FDE4F688379838A839B834F
:10133000C550D140CB5FDE4F88819981AA81BB81A6
:10134000C550D140F80180839183A283B383CE013D
:1013500087599F4F20E030E040E85FE3DC016D916A
:101360007D918D919C910E94C61688234CF4CE01EC
:1013700083599F4F21E030E0FC0131832083A5C0D9
:10138000CE0187599F4F20E03FEF4FE757E4DC0144
:101390006D917D918D919C910E944717882309F052
:1013A0000CF475C0CE018B599F4F20E030E040E235
:1013B00051E4FC0160817181828193810E944C170C
:1013C000C75FDE4F688379838A839B83C950D1408E
:1013D000C75FDE4F88819981AA81BB81C950D14006
:1013E000C356DF4F88839983AA83BB83CD59D040EE
:1013F0008E0103591F4FC356DF4F688179818A815F
:101400009B81CD59D0400E94CB16C35FDE4F6883CD
:1014100079838A839B83CD50D140C35FDE4FE881BF
:10142000F981CD50D140D8011196FC93EE9326C09E
:10143000CE0181599F4F28EC30E0DC012D933C9385
:10144000CE0181599F4FFC01808191810197F1F775
:101450009E0121593F4FD9018D939C930000CE01ED
:1014600083599F4F9E0123593F4FF90120813181BC
:1014700021503109DC0111963C932E93CE01835902
:101480009F4FFC0180819181009791F639C08E01B8
:1014900003591F4FCE0187599F4FDC016D917D91FC
:1014A0008D919C910E94CB16CF5EDE4F688379832D
:1014B0008A839B83C151D140CF5EDE4F8881998161
:1014C000C151D140F80191838083CE018F589F4F45
:1014D0009E0123593F4FD9012D913C91FC0131834D
:1014E0002083CE018F589F4FDC018D919C910197F5
:1014F000F1F79E012F583F4FF9019183808300003F
:1015000061E089810E94E90F9E01295A3F4F80E0E6
:1015100090E0A0E0B0E4F90180839183A283B383DB
:101520008E01055A1F4FCE01895A9F4F20E030E0AF
:101530004AEF54E4DC016D917D918D919C910E9464
:101540004C17CB5EDE4F688379838A839B83C551BA
:10155000D140CB5EDE4F88819981AA81BB81C55184
:10156000D140F80180839183A283B383CE01855A51
:101570009F4F20E030E040E85FE3DC016D917D911A
:101580008D919C910E94C61688234CF4CE01815AFD
:101590009F4F21E030E0FC0131832083A5C0CE01C4
:1015A000855A9F4F20E03FEF4FE757E4DC016D91F4
:1015B0007D918D919C910E944717882309F00CF42E
:1015C00075C0CE01895A9F4F20E030E040E251E4DF
:1015D000FC0160817181828193810E944C17C75EFA
:1015E000DE4F688379838A839B83C951D140C75E6C
:1015F000DE4F88819981AA81BB81C951D140C756EC
:10160000DF4F88839983AA83BB83C959D0408E0159
:10161000015A1F4FC756DF4F688179818A819B81AC
:10162000C959D0400E94CB16C35EDE4F68837983D0
:101630008A839B83CD51D140C35EDE4FE881F9811F
:10164000CD51D140D8011196FC93EE9326C0CE0126
:101650008F599F4F28EC30E0DC012D933C93CE0155
:101660008F599F4FFC01808191810197F1F79E0175
:101670002F593F4FD9018D939C930000CE01815A81
:101680009F4F9E01215A3F4FF90120813181215006
:101690003109DC0111963C932E93CE01815A9F4F64
:1016A000FC0180819181009791F639C08E01015A29
:1016B0001F4FCE01855A9F4FDC016D917D918D9119
:1016C0009C910E94CB16CF5DDE4F688379838A831D
:1016D0009B83C152D140CF5DDE4F88819981C15239
:1016E000D140F80191838083CE018D599F4F9E0197
:1016F000215A3F4FD9012D913C91FC013183208328
:10170000CE018D599F4FDC018D919C910197F1F78E
:101710009E012D593F4FF90191838083000084E0A1
:101720008A838981282F30E04DE0429FC001439F8A
:10173000900D11248C579F4FDC018C9183FB8827DF
:1017400080F9882F90E0880F991F582F8981282FC2
:1017500030E04DE0429FC001439F900D11248C5713
:101760009F4FFC01808182958170952F982B8A81F3
:10177000892B8A836A8189810E94E90F9E01275BF8
:101780003F4F80E090E0A0E8BFE3F90180839183C0
:10179000A283B3838E01035B1F4FCE01875B9F4FF4
:1017A00020E030E04AEF54E4DC016D917D918D91B1
:1017B0009C910E944C17CB5DDE4F688379838A83AE
:1017C0009B83C552D140CB5DDE4F88819981AA8130
:1017D000BB81C552D140F80180839183A283B3833A
:1017E000CE01835B9F4F20E030E040E85FE3DC0107
:1017F0006D917D918D919C910E94C61688234CF429
:10180000CE018F5A9F4F21E030E0FC0131832083CD
:10181000A5C0CE01835B9F4F20E03FEF4FE757E429
:10182000DC016D917D918D919C910E9447178823D9
:1018300009F00CF475C0CE01875B9F4F20E030E0CB
:1018400040E251E4FC0160817181828193810E94B8
:101850004C17C75DDE4F688379838A839B83C952A7
:10186000D140C75DDE4F88819981AA81BB81C95271
:10187000D140CB56DF4F88839983AA83BB83C55958
:10188000D0408E010F5A1F4FCB56DF4F68817981B0
:101890008A819B81C559D0400E94CB16C35DDE4F23
:1018A000688379838A839B83CD52D140C35DDE4FA9
:1018B000E881F981CD52D140D8011196FC93EE9385
:1018C00026C0CE018D5A9F4F28EC30E0DC012D93CD
:1018D0003C93CE018D5A9F4FFC01808191810197ED
:1018E000F1F79E012D5A3F4FD9018D939C93000033
:1018F000CE018F5A9F4F9E012F5A3F4FF9012081F1
:10190000318121503109DC0111963C932E93CE0197
:101910008F5A9F4FFC0180819181009791F63AC0C8
:101920008E010F5A1F4FCE01835B9F4FDC016D91DB
:101930007D918D919C910E94CB16CF5CDE4F688388
:1019400079838A839B83C153D140CF5CDE4F8881EA
:101950009981C153D140F80191838083CE018B5A84
:101960009F4F9E012F5A3F4FD9012D913C91FC0171
:1019700031832083CE018B5A9F4FDC018D919C9146
:1019800011970197F1F79E012B5A3F4FF90191836F
:101990008083000089818F5F89838981882311F486
:1019A0000C94770300000000CC5CDE4F0FB6F89477
:1019B000DEBF0FBECDBFDF91CF911F910F91089574
:1019C000CF93DF93CDB7DEB7C956D1090FB6F894E0
:1019D000DEBF0FBECDBF8CA76DA719828CA5282FA7
:1019E00030E04DE0429FC001439F900D112480588C
:1019F0009F4FDC018C9161E00E9471008CA5282F23
:101A000030E04DE0429FC001439F900D11248F575D
:101A10009F4FFC01808160E00E9471008CA5282FFF
:101A200030E04DE0429FC001439F900D11248D573F
:101A30009F4FDC018C91813009F0E8C0198225C0EC
:101A40008DA5882F90E02981222F30E002C0959546
:101A500087952A95E2F7782F71708CA5482F50E072
:101A60008981882F90E06DE0649F9001659F300D23
:101A70001124820F931F88589F4FFC018081672F8C
:101A80000E94710089818F5F898389818730C1F2CB
:101A9000B8F28CA5282F30E04DE0429FC001439F53
:101AA000900D11248E579F4FDC018C9161E00E94B4
:101AB000710080E090E0A0E0B0E48A839B83AC8377
:101AC000BD8320E030E04AEF54E46A817B818C8161
:101AD0009D810E944C176AAF7BAF8CAF9DAF8AADE2
:101AE0009BADACADBDAD8E839F83A887B98720E049
:101AF00030E040E85FE36E817F81888599850E94B0
:101B0000C61688232CF481E090E09B878A8762C008
:101B100020E03FEF4FE757E46E817F81888599850C
:101B20000E944717882309F00CF442C020E030E0FF
:101B300040E251E46A817B818C819D810E944C1737
:101B400022966CAF7DAF8EAF9FAF229722968CAD61
:101B50009DADAEADBFAD22978EA79FA7A8ABB9AB89
:101B60006EA57FA588A999A90E94CB1626966CAF71
:101B70007DAF8EAF9FAF26972496AEADBFAD2497B5
:101B8000BB87AA8710C088EC90E09D878C878C85E6
:101B90009D850197F1F79D878C8700008A859B853D
:101BA00001979B878A878A859B85009761F71DC06F
:101BB0006E817F81888599850E94CB162A966CAFAD
:101BC0007DAF8EAF9FAF2A972896EEADFFAD2897D9
:101BD000FB87EA878A859B859F878E878E859F8571
:101BE0000197F1F79F878E8700008CA5282F30E0A2
:101BF0004DE0429FC001439F900D11248E579F4F8F
:101C0000DC018C9160E00E947100D8C1198227C06C
:101C10008DA582958F70882F90E02981222F30E04A
:101C200002C0959587952A95E2F7782F71708CA55B
:101C3000482F50E08981882F90E06DE0649F9001EB
:101C4000659F300D1124820F931F88589F4FFC0110
:101C50008081672F0E94710089818F5F89838981CC
:101C60008330B1F2A8F28CA5282F30E04DE0429FDE
:101C7000C001439F900D11248E579F4FDC018C9122
:101C800061E00E94710080E090E0A0E0B0E4888B09
:101C9000998BAA8BBB8B20E030E04AEF54E4688933
:101CA00079898A899B890E944C172E966CAF7DAFEB
:101CB0008EAF9FAF2E972E968CAD9DADAEADBFADC6
:101CC0002E978C8B9D8BAE8BBF8B20E030E040E855
:101CD0005FE36C897D898E899F890E94C61688235F
:101CE0002CF481E090E0998F888F62C020E03FEF74
:101CF0004FE757E46C897D898E899F890E94471739
:101D0000882309F00CF442C020E030E040E251E4C6
:101D1000688979898A899B890E944C1762966CAF81
:101D20007DAF8EAF9FAF629762968CAD9DADAEAD2D
:101D3000BFAD62978AAB9BABACABBDAB6AA97BA9CD
:101D40008CA99DA90E94CB1666966CAF7DAF8EAF15
:101D50009FAF66976496AEADBFAD6497B98FA88FFD
:101D600010C088EC90E09B8F8A8F8A8D9B8D0197A5
:101D7000F1F79B8F8A8F0000888D998D0197998F3D
:101D8000888F888D998D009761F71DC06C897D893A
:101D90008E899F890E94CB166A966CAF7DAF8EAFFD
:101DA0009FAF6A976896EEADFFAD6897F98FE88FA1
:101DB000888D998D9D8F8C8F8C8D9D8D0197F1F7DE
:101DC0009D8F8C8F00008CA5282F30E04DE0429F26
:101DD000C001439F900D11248E579F4FDC018C91C1
:101DE00060E00E947100198225C08DA5882F90E0C7
:101DF0002981222F30E002C0959587952A95E2F738
:101E0000782F71708CA5482F50E08981882F90E041
:101E10006DE0649F9001659F300D1124820F931F28
:101E200088589F4FFC018081672F0E947100898133
:101E30008F5F898389818330C1F2B8F28CA5282F06
:101E400030E04DE0429FC001439F900D11248E571A
:101E50009F4FDC018C9161E00E94710080E090E076
:101E6000A0E0B0E48E8F9F8FA8A3B9A320E030E05C
:101E70004AEF54E46E8D7F8D88A199A10E944C1782
:101E80006E966CAF7DAF8EAF9FAF6E976E968CAD3A
:101E90009DADAEADBFAD6E978AA39BA3ACA3BDA312
:101EA00020E030E040E85FE36AA17BA18CA19DA126
:101EB0000E94C61688232CF481E090E09FA38EA395
:101EC00062C020E03FEF4FE757E46AA17BA18CA1FD
:101ED0009DA10E944717882309F00CF442C020E01E
:101EE00030E040E251E46E8D7F8D88A199A10E947F
:101EF0004C17A2966CAF7DAF8EAF9FAFA297A29604
:101F00008CAD9DADAEADBFADA2978EAB9FABA8AF74
:101F1000B9AF6EA97FA988AD99AD0E94CB16A696E0
:101F20006CAF7DAF8EAF9FAFA697A496AEADBFADA1
:101F3000A497BFA3AEA310C088EC90E099A788A790
:101F400088A599A50197F1F799A788A700008EA108
:101F50009FA101979FA38EA38EA19FA1009761F7D8
:101F60001DC06AA17BA18CA19DA10E94CB16AA963F
:101F70006CAF7DAF8EAF9FAFAA97A896EEADFFADC9
:101F8000A897FFA3EEA38EA19FA19BA78AA78AA5CE
:101F90009BA50197F1F79BA78AA700008CA5282F86
:101FA00030E04DE0429FC001439F900D11248E57B9
:101FB0009F4FDC018C9160E00E9471000000C759C6
:101FC000DF4F0FB6F894DEBF0FBECDBFDF91CF91CC
:101FD0000895CF93DF93CDB7DEB7C956D1090FB6B9
:101FE000F894DEBF0FBECDBF8CA76DA719828CA55C
:101FF000282F30E04DE0429FC001439F900D1124F7
:1020000080589F4FDC018C9160E00E9471008CA58C
:10201000282F30E04DE0429FC001439F900D1124D6
:102020008F579F4FFC01808160E00E9471008CA55A
:10203000282F30E04DE0429FC001439F900D1124B6
:102040008D579F4FDC018C91813009F0E8C01982D7
:1020500025C08DA5882F90E02981222F30E002C075
:10206000959587952A95E2F7782F71708CA5482F62
:1020700050E08981882F90E06DE0649F9001659F1A
:10208000300D1124820F931F88589F4FFC018081CF
:10209000672F0E94710089818F5F898389818730D2
:1020A000C1F2B8F28CA5282F30E04DE0429FC0016C
:1020B000439F900D11248E579F4FDC018C9161E05E
:1020C0000E94710080E090E0A0E0B0E48A839B83EE
:1020D000AC83BD8320E030E04AEF54E46A817B8129
:1020E0008C819D810E944C176AAF7BAF8CAF9DAFF6
:1020F0008AAD9BADACADBDAD8E839F83A887B987FC
:1021000020E030E040E85FE36E817F81888599853B
:102110000E94C61688232CF481E090E09B878A8772
:1021200062C020E03FEF4FE757E46E817F818885F2
:1021300099850E944717882309F00CF442C020E0DB
:1021400030E040E251E46A817B818C819D810E9474
:102150004C1722966CAF7DAF8EAF9FAF2297229621
:102160008CAD9DADAEADBFAD22978EA79FA7A8AB9E
:10217000B9AB6EA57FA588A999A90E94CB16269612
:102180006CAF7DAF8EAF9FAF26972496AEADBFAD3F
:102190002497BB87AA8710C088EC90E09D878C8726
:1021A0008C859D850197F1F79D878C8700008A8536
:1021B0009B8501979B878A878A859B85009761F716
:1021C0001DC06E817F81888599850E94CB162A96D5
:1021D0006CAF7DAF8EAF9FAF2A972896EEADFFAD67
:1021E0002897FB87EA878A859B859F878E878E85C0
:1021F0009F850197F1F79F878E8700008CA5282F78
:1022000030E04DE0429FC001439F900D11248E5756
:102210009F4FDC018C9160E00E947100D8C119824F
:1022200027C08DA582958F70882F90E02981222F5D
:1022300030E002C0959587952A95E2F7782F717066
:102240008CA5482F50E08981882F90E06DE0649F35
:102250009001659F300D1124820F931F88589F4F66
:10226000FC018081672F0E94710089818F5F8983C3
:1022700089818330B1F2A8F28CA5282F30E04DE09F
:10228000429FC001439F900D11248E579F4FDC0148
:102290008C9161E00E94710080E090E0A0E0B0E4E9
:1022A000888B998BAA8BBB8B20E030E04AEF54E4FB
:1022B000688979898A899B890E944C172E966CAF10
:1022C0007DAF8EAF9FAF2E972E968CAD9DADAEADF0
:1022D000BFAD2E978C8B9D8BAE8BBF8B20E030E0FB
:1022E00040E85FE36C897D898E899F890E94C616CC
:1022F00088232CF481E090E0998F888F62C020E0E1
:102300003FEF4FE757E46C897D898E899F890E9452
:102310004717882309F00CF442C020E030E040E287
:1023200051E4688979898A899B890E944C17629651
:102330006CAF7DAF8EAF9FAF629762968CAD9DAD57
:10234000AEADBFAD62978AAB9BABACABBDAB6AA980
:102350007BA98CA99DA90E94CB1666966CAF7DAF18
:102360008EAF9FAF66976496AEADBFAD6497B98FE1
:10237000A88F10C088EC90E09B8F8A8F8A8D9B8DF0
:102380000197F1F79B8F8A8F0000888D998D0197B7
:10239000998F888F888D998D009761F71DC06C8902
:1023A0007D898E899F890E94CB166A966CAF7DAF1E
:1023B0008EAF9FAF6A976896EEADFFAD6897F98FC5
:1023C000E88F888D998D9D8F8C8F8C8D9D8D019739
:1023D000F1F79D8F8C8F00008CA5282F30E04DE009
:1023E000429FC001439F900D11248E579F4FDC01E7
:1023F0008C9160E00E947100198225C08DA5882F04
:1024000090E02981222F30E002C0959587952A958A
:10241000E2F7782F71708CA5482F50E08981882FC2
:1024200090E06DE0649F9001659F300D1124820F54
:10243000931F88589F4FFC018081672F0E94710075
:1024400089818F5F898389818330C1F2B8F28CA53D
:10245000282F30E04DE0429FC001439F900D112492
:102460008E579F4FDC018C9161E00E94710080E0EB
:1024700090E0A0E0B0E48E8F9F8FA8A3B9A320E0E6
:1024800030E04AEF54E46E8D7F8D88A199A10E94BF
:102490004C176E966CAF7DAF8EAF9FAF6E976E96FA
:1024A0008CAD9DADAEADBFAD6E978AA39BA3ACA323
:1024B000BDA320E030E040E85FE36AA17BA18CA1EE
:1024C0009DA10E94C61688232CF481E090E09FA372
:1024D0008EA362C020E03FEF4FE757E46AA17BA1E3
:1024E0008CA19DA10E944717882309F00CF442C0DB
:1024F00020E030E040E251E46E8D7F8D88A199A10B
:102500000E944C17A2966CAF7DAF8EAF9FAFA29783
:10251000A2968CAD9DADAEADBFADA2978EAB9FAB7D
:10252000A8AFB9AF6EA97FA988AD99AD0E94CB16AF
:10253000A6966CAF7DAF8EAF9FAFA697A496AEADBB
:10254000BFADA497BFA3AEA310C088EC90E099A73D
:1025500088A788A599A50197F1F799A788A70000F2
:102560008EA19FA101979FA38EA38EA19FA10097EB
:1025700061F71DC06AA17BA18CA19DA10E94CB1611
:10258000AA966CAF7DAF8EAF9FAFAA97A896EEAD1F
:10259000FFADA897FFA3EEA38EA19FA19BA78AA73B
:1025A0008AA59BA50197F1F79BA78AA700008CA598
:1025B000282F30E04DE0429FC001439F900D112431
:1025C0008E579F4FDC018C9160E00E9471000000EB
:1025D000C759DF4F0FB6F894DEBF0FBECDBFDF91F6
:1025E000CF910895CF93DF9300D000D0CDB7DEB761
:1025F0008A836B834C838B818295880F880F807CC4
:102600009C81890F898389818068898369818A8116
:102610000E94E90F00000F900F900F900F90DF9134
:10262000CF910895CF93DF9300D000D0CDB7DEB720
:102630008A837C836B831982198210C08981882FD9
:1026400090E02B813C81820F931FFC018081682FD9
:102650008A810E94E00C89818F5F89838981882F1C
:1026600090E02B813C81820F931FFC0180818823A5
:1026700029F7000000000F900F900F900F90DF914E
:10268000CF910895CF93DF9300D0CDB7DEB7898384
:102690006A838A81805D682F89810E94E00C000036
:1026A0000F900F90DF91CF910895CF93DF9300D0DB
:1026B00000D00F92CDB7DEB78B837D836C8381E032
:1026C00090E09A8389838C819D81009709F46AC088
:1026D0008C819D8199236CF56DE28B810E94E00CC9
:1026E0008C819D819195819591099D838C8321C0D9
:1026F00029813A81C901880F991F880F991F820F7C
:10270000931F880F991FFC018C819D812AE030E086
:10271000B9010E948F168E0F9F1F9A8389838C8127
:102720009D812AE030E0B9010E948F16CB019D8384
:102730008C838C819D810097D9F62EC049815A8166
:102740009A01ADECBCEC0E94A3169C01369527952E
:102750003695279536952795C901880F991F880FBB
:10276000991F820F931F880F991F9A01281B390BFD
:10277000822F682F8B810E94421389819A819C014C
:10278000ADECBCEC0E94A31696958795969587951F
:10279000969587959A83898389819A81813091055D
:1027A00069F604C060E08B810E94421300000F9024
:1027B0000F900F900F900F90DF91CF910895CF93CE
:1027C000DF9300D000D00F92CDB7DEB70E9441005A
:1027D0000E9465030E94C1028FEF8D8319821A82C5
:1027E0001B821C828B81482F50E08A81282F30E089
:1027F0008981882F90E0B9010E945D154C8160E0CD
:1028000080E00E94F2120E9449158D838D81882FED
:1028100090E085359105E9F08535910509F014F7CB
:102820008335910509F4FEC08335910509F0D4F68E
:102830008235910509F4D9C08235910509F094F6E5
:102840008434910509F467C08C34910509F4DBC028
:10285000FCC08C81882F90E08730910509F44FC02F
:102860008730910511F00CF0EDC086309105E1F153
:102870008630910511F00CF0E5C08430910531F1FE
:102880008430910511F00CF0DDC08330910599F092
:102890008330910511F00CF0D5C0009721F0813004
:1028A000910529F0CFC08B81865F8B8333C08B81EC
:1028B0008F5F8B832FC08A81882F90E00A962CE34C
:1028C00030E0B9010E948F168A8324C08A81882F44
:1028D00090E001962CE330E0B9010E948F16982F0A
:1028E0008A81890F8A8316C08981882F90E00A9691
:1028F0002CE330E0B9010E948F1689830BC08981D7
:10290000882F90E001962CE330E0B9010E948F16E9
:102910008983000097C08C81882F90E087309105D3
:1029200009F455C08730910511F00CF08DC0863048
:10293000910509F43FC08630910511F00CF084C078
:102940008430910551F18430910511F00CF07CC078
:1029500083309105A9F08330910511F00CF074C01B
:10296000009721F08130910531F06EC08B818A5043
:102970008F738B8339C08B8181508F738B8334C06D
:102980008A81882F90E00A978F7399272CE330E093
:10299000B9010E948F168A8327C08A81882F90E010
:1029A00001978F7399272CE330E0B9010E948F16AD
:1029B0008A831AC08981882F90E00A978F7399279C
:1029C0002CE330E0B9010E948F1689830DC0898104
:1029D000882F90E001978F7399272CE330E0B9019D
:1029E0000E948F16898300002FC08C81882F90E071
:1029F000019687709078992324F40197886F9F6FD0
:102A000001968C8322C08C81882F90E0019787707B
:102A10009078992324F40197886F9F6F01968770AF
:102A20008C8313C08B81482F50E08A81282F30E09F
:102A30008981882F90E0B9010E948D1519821A8230
:102A40001B8203C00000CECE0000CCCECF93DF931C
:102A500000D0CDB7DEB79A83898389819A81893086
:102A6000910509F050F460E080E00E9442138981F2
:102A7000682F80E00E94421306C089819A81BC01C0
:102A800080E00E94551300000F900F90DF91CF91CE
:102A90000895CF93DF930F92CDB7DEB70E94F30274
:102AA000898303C00E94F302898389818F3FD1F318
:102AB00089810F90DF91CF910895CF93DF9300D05C
:102AC00000D000D0CDB7DEB79A8389837C836B8337
:102AD0005E834D8340E060E080E00E94F2128D81D1
:102AE0009E810E9426156AE380E00E94E00C8B81A3
:102AF0009C810E9426156AE380E00E94E00C898197
:102B00009A810E94261500000F900F900F900F9051
:102B10000F900F90DF91CF910895CF93DF93CDB7B2
:102B2000DEB7A8970FB6F894DEBF0FBECDBF988B67
:102B30008F877A8B698B5C8B4B8BC8C08F8598890C
:102B40000197988B8F8780E090E0AAE7B4E48983AF
:102B50009A83AB83BC8320E030E04AEF54E4698180
:102B60007A818B819C810E944C17698F7A8F8B8F21
:102B70009C8F898D9A8DAB8DBC8D8D839E83AF8309
:102B8000B88720E030E040E85FE36D817E818F818F
:102B900098850E94C61688232CF481E090E09A87DD
:102BA000898755C020E03FEF4FE757E46D817E8174
:102BB0008F8198850E9447178823D9F1D4F120E0AE
:102BC00030E040E251E469817A818B819C810E94EE
:102BD0004C176D8F7E8F8F8F98A38D8D9E8DAF8DAF
:102BE000B8A18D8B9E8BAF8BB88F6D897E898F89B5
:102BF000988D0E94CB1669A37AA38BA39CA3A9A14D
:102C0000BAA1BA87A98710C088EC90E09C878B870F
:102C10008B859C850197F1F79C878B8700008985C0
:102C20009A8501979A87898789859A85009761F7A0
:102C300019C06D817E818F8198850E94CB166DA30E
:102C40007EA38FA398A78DA19EA19A878987898546
:102C50009A859E878D878D859E850197F1F79E8742
:102C60008D8700004B895C8929893A898F859889ED
:102C7000B9010E945D158F859889009709F05ECF94
:102C800089899A89009749F08BE390E0988B8F8728
:102C900089899A8901979A8B898B89899A89009762
:102CA00051F78F859889009731F78B899C89009718
:102CB00069F08BE390E0988B8F878BE390E09A8BA1
:102CC000898B8B899C8901979C8B8B8B8B899C89A9
:102CD000009719F789899A890097F9F68F8598895D
:102CE0000097D9F640E061E080E00E94F21265E8CA
:102CF00070E080E00E94121300000E9449158F3F8F
:102D0000E1F361E080E00E94E90F0000A8960FB6B1
:102D1000F894DEBF0FBECDBFDF91CF91089597FB32
:102D2000072E16F4009407D077FD09D00E94B21642
:102D300007FC05D03EF4909581959F4F08957095BE
:102D400061957F4F0895A29FB001B39FC001A39FDB
:102D5000700D811D1124911DB29F700D811D1124D4
:102D6000911D0895AA1BBB1B51E107C0AA1FBB1FE1
:102D7000A617B70710F0A61BB70B881F991F5A9507
:102D8000A9F780959095BC01CD0108950E94FA168F
:102D900008F481E008950E94261788F09F5798F064
:102DA000B92F9927B751B0F0E1F0660F771F881F50
:102DB000991F1AF0BA95C9F714C0B13091F00E946A
:102DC0004017B1E008950C944017672F782F88279B
:102DD000B85F39F0B93FCCF3869577956795B39591
:102DE000D9F73EF490958095709561957F4F8F4F00
:102DF0009F4F0895990F0008550FAA0BE0E8FEEFCA
:102E000016161706E807F907C0F012161306E407AE
:102E1000F50798F0621B730B840B950B39F40A26A7
:102E200061F0232B242B252B21F408950A2609F485
:102E3000A140A6958FEF811D811D089557FD9058E3
:102E4000440F551F59F05F3F71F04795880F97FB6E
:102E5000991F61F09F3F79F0879508951216130628
:102E60001406551FF2CF4695F1DF08C01616170657
:102E70001806991FF1CF869571056105089408958C
:102E8000E894BB2766277727CB0197F908950E941E
:102E9000FA1608F48FEF08950E945F170C94D0176C
:102EA0000E94C21738F00E94C91720F0952311F034
:102EB0000C94B9170C94BF1711240C9441170E945D
:102EC0001E1770F3959FC1F3950F50E0551F629F39
:102ED000F001729FBB27F00DB11D639FAA27F00D73
:102EE000B11DAA1F649F6627B00DA11D661F829F9A
:102EF0002227B00DA11D621F739FB00DA11D621F7F
:102F0000839FA00D611D221F749F3327A00D611D9B
:102F1000231F849F600D211D822F762F6A2F11247D
:102F20009F5750409AF0F1F088234AF0EE0FFF1FB0
:102F3000BB1F661F771F881F91505040A9F79E3F07
:102F4000510580F00C94B9170C9441175F3FE4F3DE
:102F5000983ED4F3869577956795B795F795E7955D
:102F60009F5FC1F7FE2B880F911D9695879597F966
:102F7000089597F99F6780E870E060E008959FEFFB
:102F800080EC089500240A94161617061806090600
:102F9000089500240A9412161306140605060895CF
:102FA000092E0394000C11F4882352F0BB0F40F457
:102FB000BF2B11F460FF04C06F5F7F4F8F4F9F4F97
:062FC0000895F894FFCF14
:102FC6001B1A19181C1D1E1F3755392F4C53522A10
:102FD6003144332D43302E2B00010203040506072E
:102FE60008090A012F497473205468652054696DD5
:022FF600650074
:00000001FF
