:100000000C942A000C9447000C9447000C94470071
:100010000C9442190C940D190C9447000C94470051
:100020000C9447000C9447000C94AC170C94771771
:100030000C9447000C9447000C9447000C94470024
:100040000C9447000C9447000C9447000C94470014
:100050000C94470011241FBECFE5D8E0DEBFCDBF12
:1000600010E0A0E6B0E0EAEBFBE302C005900D92E1
:10007000AE3FB107D9F721E0AEEFB0E001C01D926D
:10008000A930B207E1F70E9477190C94DB1D0C949C
:100090000000CF93DF93CDB7DEB78BE390E02FEF77
:1000A000FC01208388E390E02FEFFC01208385E3AF
:1000B00090E02FEFFC01208382E390E02FEFFC0122
:1000C00020838AE390E020EFFC01208387E390E027
:1000D0002FEFFC01208384E390E02FEFFC012083CD
:1000E00081E390E02FEFFC0120830000DF91CF91AE
:1000F0000895CF93DF9300D00F92CDB7DEB78A83F8
:100100006B8319828A818F3111F008F00DC18A81C9
:10011000882F90E08F31910511F00CF007C18831E4
:1001200091050CF0C5C08731910511F00CF0FEC0AF
:10013000803191050CF080C08730910509F01CF4E6
:10014000992344F4F3C008978730910511F008F023
:10015000EDC036C08B818130B1F48BE390E0FC01BF
:100160008081482F8A81282F30E081E090E002C012
:10017000880F991F2A95E2F7242F282B8BE390E014
:10018000FC012083D3C08B818823B9F48BE390E0FA
:10019000FC018081482F8A81282F30E081E090E0A7
:1001A00002C0880F991F2A95E2F78095242F2823F3
:1001B0008BE390E0FC012083B9C081E08983B6C065
:1001C0008B818130C9F488E390E0FC018081482F65
:1001D0008A81882F90E09C012770332781E090E08E
:1001E00002C0880F991F2A95E2F7242F282B88E355
:1001F00090E0FC0120839AC08B818823D1F488E3AE
:1002000090E0FC018081482F8A81882F90E09C013A
:100210002770332781E090E002C0880F991F2A954C
:10022000E2F78095242F282388E390E0FC012083C7
:100230007DC081E089837AC08B818130C9F485E3F8
:1002400090E0FC018081482F8A81882F90E09C01FA
:100250002770332781E090E002C0880F991F2A950C
:10026000E2F7242F282B85E390E0FC0120835EC079
:100270008B818823D1F485E390E0FC018081482FB5
:100280008A81882F90E09C012770332781E090E0DD
:1002900002C0880F991F2A95E2F78095242F282302
:1002A00085E390E0FC01208341C081E089833EC06A
:1002B0008B818130C9F482E390E0FC018081482F7A
:1002C0008A81882F90E09C012770332781E090E09D
:1002D00002C0880F991F2A95E2F7242F282B82E36A
:1002E00090E0FC01208322C08B818823D1F482E33B
:1002F00090E0FC018081482F8A81882F90E09C014A
:100300002770332781E090E002C0880F991F2A955B
:10031000E2F78095242F282382E390E0FC012083DC
:1003200005C081E0898302C082E0898389810F90C2
:100330000F900F90DF91CF910895CF93DF9300D06E
:1003400000D0CDB7DEB78A837C836B8319828B8123
:100350009C81009709F47FC08A81882F90E08F31BB
:10036000910511F00CF074C0883191050CF059C062
:100370008731910511F00CF06BC080319105D4F5F7
:100380008730910509F01CF4992344F461C0089763
:100390008730910511F008F05BC015C089E390E04B
:1003A000FC018081882F90E02A81222F30E002C05A
:1003B000959587952A95E2F7282F21708B819C814E
:1003C000FC0120834AC086E390E0FC018081882FF5
:1003D00090E02A81222F30E02770332702C09595C4
:1003E00087952A95E2F7282F21708B819C81FC014B
:1003F000208333C083E390E0FC018081882F90E06C
:100400002A81222F30E02770332702C095958795E7
:100410002A95E2F7282F21708B819C81FC01208393
:100420001CC080E390E0FC018081882F90E02A814D
:10043000222F30E02770332702C0959587952A95A3
:10044000E2F7282F21708B819C81FC01208305C05D
:1004500082E0898302C081E0898389810F900F90B7
:100460000F900F90DF91CF910895CF93DF9300D03D
:1004700000D000D00F92CDB7DEB79C838B837E83F4
:100480006D834F8319821A821A821CC08A81882F39
:1004900090E02D813E81820F931FFC0140818A8173
:1004A000882F90E02B813C81820F931FFC0180817B
:1004B000642F0E94790089838981882341F48A818D
:1004C0008F5F8A839A818F81981700F301C00000A3
:1004D000898127960FB6F894DEBF0FBECDBFDF919E
:1004E000CF910895CF93DF9300D00F92CDB7DEB7B1
:1004F0008A836B8319826B818A810E947900898348
:1005000089810F900F900F90DF91CF910895CF9335
:10051000DF9300D00F92CDB7DEB78A836B83198249
:100520008A81882F90E08330910519F183309105FD
:1005300009F02CF582309105B1F08230910509F077
:10054000F4F4009721F08130910539F018C08BE365
:1005500090E02B81FC01208315C088E390E02B8183
:10056000FC0120830FC085E390E02B81FC012083F8
:1005700009C082E390E02B81FC01208303C082E06C
:100580008983000089810F900F900F90DF91CF91A8
:100590000895CF93DF93CDB7DEB78FE590E0FC01F0
:1005A00020818FE590E02068FC0120830000DF912E
:1005B000CF910895CF93DF93CDB7DEB78FE590E06D
:1005C000FC0120818FE590E02F77FC012083000063
:1005D000DF91CF910895CF93DF930F92CDB7DEB720
:1005E000198219820DC08981882F90E08C599F4F04
:1005F000FC01808161E00E94790089818F5F89839D
:100600008981833081F378F319820DC08981882F25
:1006100090E0805A9F4FFC01808161E00E9472024D
:1006200089818F5F89838981833081F378F300002A
:1006300000000F90DF91CF910895CF93DF9300D00A
:1006400000D0CDB7DEB719821A821C828FEF8B8360
:10065000198256C08981882F90E08C599F4FFC01E8
:10066000808160E00E9479001A8236C08A81882FDA
:1006700090E0805A9F4FFC012081CE010496BC017E
:10068000822F0E949D018C81882319F50DC08A81DB
:10069000882F90E0805A9F4FFC012081CE01049664
:1006A000BC01822F0E949D018C81882381F3898166
:1006B000282F30E08A81882F90E0220F331F220FED
:1006C000331F820F931F88599F4FFC0180818B83BA
:1006D00007C08A818F5F8A838A81833039F230F242
:1006E0008981882F90E08C599F4FFC01808161E0C7
:1006F0000E9479008B818F3F49F489818F5F8983C4
:100700008981833009F008F4A5CF01C000008B81F6
:100710000F900F900F900F90DF91CF9108950F934E
:100720001F93CF93DF93CDB7DEB7C453D1400FB63D
:10073000F894DEBF0FBECDBF19821A8219820C94C5
:10074000F70C80E090E0A0EFB1E48B839C83AD8355
:10075000BE8320E030E04AEF54E46B817C818D81E0
:100760009E810E946E1DCB55DF4F688379838A83FB
:100770009B83C55AD040CB55DF4F88819981AA8190
:10078000BB81C55AD0408F839887A987BA8720E05C
:1007900030E040E85FE36F81788589859A850E9423
:1007A000111C88232CF481E090E09C878B8776C015
:1007B00020E03FEF4FE757E46F81788589859A8580
:1007C0000E94691D882309F00CF452C020E030E03B
:1007D00040E251E46B817C818D819E810E946E1D7F
:1007E000C755DF4F688379838A839B83C95AD0407A
:1007F000C755DF4F88819981AA81BB81C95AD040F2
:10080000CF57DF4F88839983AA83BB83C158D040D9
:10081000CF57DF4F688179818A819B81C158D04051
:100820000E94881CC355DF4F688379838A839B832A
:10083000CD5AD040C355DF4FA881B981CD5AD040A1
:10084000BC87AB8710C088EC90E09E878D878D8534
:100850009E850197F1F79E878D8700008B859C858B
:1008600001979C878B878B859C85009761F721C0BA
:100870006F81788589859A850E94881CCF54DF4FC7
:10088000688379838A839B83C15BD040CF54DF4FD9
:10089000E881F981C15BD040FC87EB878B859C8523
:1008A000988B8F878F8598890197F1F7988B8F8721
:1008B00000008981282F30E04DE0429FC001439F16
:1008C000900D11248D579F4FDC018C91813009F0E0
:1008D000BEC380E38A838981282F30E04DE0429FA8
:1008E000C001439F900D11248C579F4FFC018081C4
:1008F0008170882F90E0880F991F880F991F880FAB
:10090000991F582F8981282F30E04DE0429FC00168
:10091000439F900D11248C579F4FDC018C9185FBD8
:10092000882780F9882F90E0880F991F880F991FDA
:10093000952F982B8A81892B8A836A8189810E94CD
:10094000131080E090E0A0E8BFE38BAF9CAFADAFA9
:10095000BEAF8E01015C1F4F20E030E04AEF54E44F
:100960006BAD7CAD8DAD9EAD0E946E1DCB54DF4F47
:10097000688379838A839B83C55BD040CB54DF4FE8
:1009800088819981AA81BB81C55BD040F8018083B1
:100990009183A283B383CE01CF9620E030E040E87C
:1009A0005FE3DC016D917D918D919C910E94111C02
:1009B00088234CF4CE018D5B9F4F21E030E0FC0199
:1009C000318320839FC0CE01CF9620E03FEF4FE7D9
:1009D00057E4DC016D917D918D919C910E94691D80
:1009E000882309F00CF471C020E030E040E251E4CB
:1009F0006BAD7CAD8DAD9EAD0E946E1DC754DF4FBB
:100A0000688379838A839B83C95BD040C754DF4F57
:100A100088819981AA81BB81C95BD040CF56DF4FC5
:100A200088839983AA83BB83C159D0408E010D5B13
:100A30001F4FCF56DF4F688179818A819B81C159D1
:100A4000D0400E94881CC354DF4F688379838A8317
:100A50009B83CD5BD040C354DF4FE881F981CD5BF0
:100A6000D040D8011196FC93EE9326C0CE018B5B4B
:100A70009F4F28EC30E0DC012D933C93CE018B5B43
:100A80009F4FFC01808191810197F1F79E012B5BC3
:100A90003F4FD9018D939C930000CE018D5B9F4FFA
:100AA0009E012D5B3F4FF901208131812150310999
:100AB000DC0111963C932E93CE018D5B9F4FFC0180
:100AC00080819181009791F638C08E010D5B1F4F98
:100AD000CE01CF96DC016D917D918D919C910E940C
:100AE000881CCF53DF4F688379838A839B83C15CE3
:100AF000D040CF53DF4F88819981C15CD040F8014D
:100B000091838083CE01895B9F4F9E012D5B3F4F78
:100B1000D9012D913C91FC0131832083CE01895B69
:100B20009F4FDC018D919C910197F1F79E01295B0C
:100B30003F4FF9019183808300008CE08A83898193
:100B4000282F30E04DE0429FC001439F900D1124BB
:100B50008C579F4FDC018C9182FB882780F9882F6E
:100B600090E0880F991F582F8981282F30E04DE0A1
:100B7000429FC001439F900D11248C579F4FFC0151
:100B8000808186958170952F982B8A81892B8A8305
:100B90006A8189810E94131080E090E0A0E8BFE3A1
:100BA0008DA79EA7AFA7B8AB20E030E04AEF54E492
:100BB0006DA57EA58FA598A90E946E1DCB53DF4F12
:100BC000688379838A839B83C55CD040CB53DF4F96
:100BD00088819981AA81BB81C55CD04089AB9AABE1
:100BE000ABABBCAB20E030E040E85FE369A97AA999
:100BF0008BA99CA90E94111C88232CF481E090E011
:100C00009EAB8DAB76C020E03FEF4FE757E469A97C
:100C10007AA98BA99CA90E94691D882309F00CF46C
:100C200052C020E030E040E251E46DA57EA58FA5E2
:100C300098A90E946E1DC753DF4F688379838A830A
:100C40009B83C95CD040C753DF4F88819981AA81BB
:100C5000BB81C95CD040C357DF4F88839983AA8387
:100C6000BB83CD58D040C357DF4F688179818A81DB
:100C70009B81CD58D0400E94881CC353DF4F6883AE
:100C800079838A839B83CD5CD040C353DF4FA88197
:100C9000B981CD5CD040BEABADAB10C088EC90E06C
:100CA00098AF8FAB8FA998AD0197F1F798AF8FAB45
:100CB00000008DA99EA901979EAB8DAB8DA99EA921
:100CC000009761F721C069A97AA98BA99CA90E9404
:100CD000881CCF52DF4F688379838A839B83C15DF1
:100CE000D040CF52DF4FE881F981C15DD040FEABEB
:100CF000EDAB8DA99EA99AAF89AF89AD9AAD019749
:100D0000F1F79AAF89AF000061E089810E9413106A
:100D100080E090E0A0E0B0E48F8F98A3A9A3BAA3ED
:100D200020E030E04AEF54E46F8D78A189A19AA1C8
:100D30000E946E1DCB52DF4F688379838A839B8329
:100D4000C55DD040CB52DF4F88819981AA81BB819C
:100D5000C55DD0408BA39CA3ADA3BEA320E030E033
:100D600040E85FE36BA17CA18DA19EA10E94111CB4
:100D700088232CF481E090E098A78FA376C020E030
:100D80003FEF4FE757E46BA17CA18DA19EA10E948C
:100D9000691D882309F00CF452C020E030E040E2E5
:100DA00051E46F8D78A189A19AA10E946E1DC7524E
:100DB000DF4F688379838A839B83C95DD040C752A4
:100DC000DF4F88819981AA81BB81C95DD040C75717
:100DD000DF4F88839983AA83BB83C958D040C75704
:100DE000DF4F688179818A819B81C958D0400E94F8
:100DF000881CC352DF4F688379838A839B83CD5DD0
:100E0000D040C352DF4FA881B981CD5DD040B8A793
:100E1000AFA310C088EC90E09AA789A789A59AA5EE
:100E20000197F1F79AA789A700008FA198A50197CC
:100E300098A78FA38FA198A5009761F721C06BA1F8
:100E40007CA18DA19EA10E94881CCF51DF4F688399
:100E500079838A839B83C15ED040CF51DF4FE88185
:100E6000F981C15ED040F8A7EFA38FA198A59CA7F8
:100E70008BA78BA59CA50197F1F79CA78BA70000DA
:100E800084E08A838981282F30E04DE0429FC001B1
:100E9000439F900D11248C579F4FDC018C9183FB55
:100EA000882780F9882F90E0880F991F582F898113
:100EB000282F30E04DE0429FC001439F900D112448
:100EC0008C579F4FFC01808182958170952F982BC4
:100ED0008A81892B8A836A8189810E94131080E02C
:100EE00090E0A0E8BFE3898B9A8BAB8BBC8B20E0B2
:100EF00030E04AEF54E469897A898B899C890E94A1
:100F00006E1DCB51DF4F688379838A839B83C55ED7
:100F1000D040CB51DF4F88819981AA81BB81C55ECA
:100F2000D0408D8B9E8BAF8BB88F20E030E040E8B7
:100F30005FE36D897E898F89988D0E94111C8823BB
:100F40002CF481E090E09A8F898F76C020E03FEF0B
:100F50004FE757E46D897E898F89988D0E94691DBE
:100F6000882309F00CF452C020E030E040E251E464
:100F700069897A898B899C890E946E1DC751DF4FD0
:100F8000688379838A839B83C95ED040C751DF4FD2
:100F900088819981AA81BB81C95ED040CB57DF4F40
:100FA00088839983AA83BB83C558D040CB57DF4F32
:100FB000688179818A819B81C558D0400E94881CB4
:100FC000C351DF4F688379838A839B83CD5ED04092
:100FD000C351DF4FA881B981CD5ED040BA8FA98FB0
:100FE00010C088EC90E09C8F8B8F8B8D9C8D01972F
:100FF000F1F79C8F8B8F0000898D9A8D01979A8FC6
:10100000898F898D9A8D009761F7EEC46D897E89ED
:101010008F89988D0E94881CCF50DF4F6883798319
:101020008A839B83C15FD040CF50DF4FE881F98135
:10103000C15FD040FA8FE98F898D9A8D9E8F8D8FF9
:101040008D8D9E8D0197F1F79E8F8D8FCDC482E09F
:101050008A836A8189810E94131080E28A83898150
:10106000282F30E04DE0429FC001439F900D112496
:101070008C579F4FDC018C918170882F90E0880FF6
:10108000991F880F991F880F991F582F8981282F22
:1010900030E04DE0429FC001439F900D11248C57DA
:1010A0009F4FFC01808185FB882780F9882F90E085
:1010B000880F991F880F991F952F982B8A81892B4C
:1010C0008A836A8189810E9413109E012D583F4FA7
:1010D00080E090E0A0E8BFE3F90180839183A283E0
:1010E000B3838E0109581F4FCE018D589F4F20E0CA
:1010F00030E04AEF54E4DC016D917D918D919C913B
:101100000E946E1DCB50DF4F688379838A839B8357
:10111000C55FD040CB50DF4F88819981AA81BB81C8
:10112000C55FD040F80180839183A283B383CE0151
:1011300089589F4F20E030E040E85FE3DC016D918B
:101140007D918D919C910E94111C88234CF4CE01BD
:1011500085589F4F21E030E0FC0131832083A5C0FA
:10116000CE0189589F4F20E03FEF4FE757E4DC0165
:101170006D917D918D919C910E94691D882309F04C
:101180000CF475C0CE018D589F4F20E030E040E256
:1011900051E4FC0160817181828193810E946E1D06
:1011A000C750DF4F688379838A839B83C95FD040B0
:1011B000C750DF4F88819981AA81BB81C95FD04028
:1011C000CF55DF4F88839983AA83BB83C15AD04010
:1011D0008E0105581F4FCF55DF4F688179818A8175
:1011E0009B81C15AD0400E94881CC350DF4F688346
:1011F00079838A839B83CD5FD040C350DF4FE881E2
:10120000F981CD5FD040D8011196FC93EE9326C0B2
:10121000CE0183589F4F28EC30E0DC012D933C93A6
:10122000CE0183589F4FFC01808191810197F1F796
:101230009E0123583F4FD9018D939C930000CE010E
:1012400085589F4F9E0125583F4FF90120813181DC
:1012500021503109DC0111963C932E93CE01855823
:101260009F4FFC0180819181009791F639C08E01DA
:1012700005581F4FCE0189589F4FDC016D917D911C
:101280008D919C910E94881CCF5FDE4F688379838B
:101290008A839B83C150D140CF5FDE4F8881998183
:1012A000C150D140F80191838083CE0181589F4F76
:1012B0009E0125583F4FD9012D913C91FC0131836E
:1012C0002083CE0181589F4FDC018D919C91019725
:1012D000F1F79E0121583F4FF9019183808300006F
:1012E0008CE08A838981282F30E04DE0429FC00145
:1012F000439F900D11248C579F4FDC018C9182FBF2
:10130000882780F9882F90E0880F991F582F8981AE
:10131000282F30E04DE0429FC001439F900D1124E3
:101320008C579F4FFC01808186958170952F982B5B
:101330008A81892B8A836A8189810E9413109E0188
:101340002B593F4F80E090E0A0E8BFE3F901808394
:101350009183A283B3838E0107591F4FCE018B590E
:101360009F4F20E030E04AEF54E4DC016D917D9125
:101370008D919C910E946E1DCB5FDE4F68837983B7
:101380008A839B83C550D140CB5FDE4F8881998192
:10139000AA81BB81C550D140F80180839183A2838B
:1013A000B383CE0187599F4F20E030E040E85FE3F0
:1013B000DC016D917D918D919C910E94111C88237F
:1013C0004CF4CE0183599F4F21E030E0FC01318382
:1013D0002083A5C0CE0187599F4F20E03FEF4FE704
:1013E00057E4DC016D917D918D919C910E94691D66
:1013F000882309F00CF475C0CE018B599F4F20E073
:1014000030E040E251E4FC0160817181828193818E
:101410000E946E1DC75FDE4F688379838A839B833A
:10142000C950D140C75FDE4F88819981AA81BB81B5
:10143000C950D140C356DF4F88839983AA83BB83A9
:10144000CD59D0408E0103591F4FC356DF4F6881DD
:1014500079818A819B81CD59D0400E94881CC35FCD
:10146000DE4F688379838A839B83CD50D140C35FED
:10147000DE4FE881F981CD50D140D8011196FC931F
:10148000EE9326C0CE0181599F4F28EC30E0DC015D
:101490002D933C93CE0181599F4FFC018081918116
:1014A0000197F1F79E0121593F4FD9018D939C93EC
:1014B0000000CE0183599F4F9E0123593F4FF901F0
:1014C0002081318121503109DC0111963C932E930A
:1014D000CE0183599F4FFC0180819181009791F645
:1014E00039C08E0103591F4FCE0187599F4FDC0130
:1014F0006D917D918D919C910E94881CCF5EDE4FF5
:10150000688379838A839B83C151D140CF5EDE4F4C
:1015100088819981C151D140F80191838083CE01A6
:101520008F589F4F9E0123593F4FD9012D913C91D8
:10153000FC0131832083CE018F589F4FDC018D91B8
:101540009C910197F1F79E012F583F4FF90191832C
:101550008083000061E089810E9413109E01295A56
:101560003F4F80E090E0A0E0B0E4F90180839183F8
:10157000A283B3838E01055A1F4FCE01895A9F4F14
:1015800020E030E04AEF54E4DC016D917D918D91D3
:101590009C910E946E1DCB5EDE4F688379838A83A7
:1015A0009B83C551D140CB5EDE4F88819981AA8152
:1015B000BB81C551D140F80180839183A283B3835D
:1015C000CE01855A9F4F20E030E040E85FE3DC0128
:1015D0006D917D918D919C910E94111C88234CF4FA
:1015E000CE01815A9F4F21E030E0FC0131832083FE
:1015F000A5C0CE01855A9F4F20E03FEF4FE757E44B
:10160000DC016D917D918D919C910E94691D8823D3
:1016100009F00CF475C0CE01895A9F4F20E030E0EC
:1016200040E251E4FC0160817181828193810E94DA
:101630006E1DC75EDE4F688379838A839B83C951A1
:10164000D140C75EDE4F88819981AA81BB81C95193
:10165000D140C756DF4F88839983AA83BB83C9597A
:10166000D0408E01015A1F4FC756DF4F68817981E4
:101670008A819B81C959D0400E94881CC35EDE4F7D
:10168000688379838A839B83CD51D140C35EDE4FCB
:10169000E881F981CD51D140D8011196FC93EE93A8
:1016A00026C0CE018F599F4F28EC30E0DC012D93EE
:1016B0003C93CE018F599F4FFC018081918101970E
:1016C000F1F79E012F593F4FD9018D939C93000054
:1016D000CE01815A9F4F9E01215A3F4FF90120812F
:1016E000318121503109DC0111963C932E93CE01BA
:1016F000815A9F4FFC0180819181009791F639C0FA
:101700008E01015A1F4FCE01855A9F4FDC016D910A
:101710007D918D919C910E94881CCF5DDE4F6883E6
:1017200079838A839B83C152D140CF5DDE4F88810C
:101730009981C152D140F80191838083CE018D59A6
:101740009F4F9E01215A3F4FD9012D913C91FC01A1
:1017500031832083CE018D599F4FDC018D919C9167
:101760000197F1F79E012D593F4FF9019183808335
:10177000000084E08A838981282F30E04DE0429F79
:10178000C001439F900D11248C579F4FDC018C9119
:1017900083FB882780F9882F90E0880F991F582FA6
:1017A0008981282F30E04DE0429FC001439F900D7A
:1017B00011248C579F4FFC01808182958170952F59
:1017C000982B8A81892B8A836A8189810E941310D0
:1017D0009E01275B3F4F80E090E0A0E8BFE3F90166
:1017E00080839183A283B3838E01035B1F4FCE015D
:1017F000875B9F4F20E030E04AEF54E4DC016D91BD
:101800007D918D919C910E946E1DCB5DDE4F688312
:1018100079838A839B83C552D140CB5DDE4F88811B
:101820009981AA81BB81C552D140F80180839183FF
:10183000A283B383CE01835B9F4F20E030E040E87A
:101840005FE3DC016D917D918D919C910E94111C53
:1018500088234CF4CE018F5A9F4F21E030E0FC01E9
:1018600031832083A5C0CE01835B9F4F20E03FEFF3
:101870004FE757E4DC016D917D918D919C910E9421
:10188000691D882309F00CF475C0CE01875B9F4F5A
:1018900020E030E040E251E4FC016081718182810E
:1018A00093810E946E1DC75DDE4F688379838A83B2
:1018B0009B83C952D140C75DDE4F88819981AA813F
:1018C000BB81C952D140CB56DF4F88839983AA830D
:1018D000BB83C559D0408E010F5A1F4FCB56DF4FE7
:1018E000688179818A819B81C559D0400E94881C7A
:1018F000C35DDE4F688379838A839B83CD52D14059
:10190000C35DDE4FE881F981CD52D140D8011196F7
:10191000FC93EE9326C0CE018D5A9F4F28EC30E009
:10192000DC012D933C93CE018D5A9F4FFC018081A9
:1019300091810197F1F79E012D5A3F4FD9018D9367
:101940009C930000CE018F5A9F4F9E012F5A3F4F0C
:10195000F9012081318121503109DC0111963C933C
:101960002E93CE018F5A9F4FFC0180819181009769
:1019700091F63AC08E010F5A1F4FCE01835B9F4FE5
:10198000DC016D917D918D919C910E94881CCF5CB2
:10199000DE4F688379838A839B83C153D140CF5CB8
:1019A000DE4F88819981C153D140F80191838083B2
:1019B000CE018B5A9F4F9E012F5A3F4FD9012D9137
:1019C0003C91FC0131832083CE018B5A9F4FDC0177
:1019D0008D919C9111970197F1F79E012B5A3F4FE2
:1019E000F90191838083000089818F5F89838981D8
:1019F000882311F40C94A10300000000CC5CDE4F9E
:101A00000FB6F894DEBF0FBECDBFDF91CF911F910F
:101A10000F910895CF93DF93CDB7DEB7C956D109A3
:101A20000FB6F894DEBF0FBECDBF8CA76DA719828D
:101A30008CA5282F30E04DE0429FC001439F900DC0
:101A4000112480589F4FDC018C9161E00E94790045
:101A50008CA5282F30E04DE0429FC001439F900DA0
:101A600011248F579F4FFC01808160E00E94790014
:101A70008CA5282F30E04DE0429FC001439F900D80
:101A800011248D579F4FDC018C91813009F0E8C003
:101A9000198225C08DA5882F90E02981222F30E062
:101AA00002C0959587952A95E2F7782F71708CA5DD
:101AB000482F50E08981882F90E06DE0649F90016D
:101AC000659F300D1124820F931F88589F4FFC0192
:101AD0008081672F0E94790089818F5F8983898146
:101AE0008730C1F2B8F28CA5282F30E04DE0429F3C
:101AF000C001439F900D11248E579F4FDC018C91A4
:101B000061E00E94790080E090E0A0E0B0E48A8388
:101B10009B83AC83BD8320E030E04AEF54E46A81CC
:101B20007B818C819D810E946E1D6AAF7BAF8CAFE3
:101B30009DAF8AAD9BADACADBDAD8E839F83A887B5
:101B4000B98720E030E040E85FE36E817F818885DF
:101B500099850E94111C88232CF481E090E09B87DA
:101B60008A8762C020E03FEF4FE757E46E817F81B4
:101B7000888599850E94691D882309F00CF442C06C
:101B800020E030E040E251E46A817B818C819D81DC
:101B90000E946E1D22966CAF7DAF8EAF9FAF2297D5
:101BA00022968CAD9DADAEADBFAD22978EA79FA7FF
:101BB000A8ABB9AB6EA57FA588A999A90E94881C7E
:101BC00026966CAF7DAF8EAF9FAF26972496AEADB5
:101BD000BFAD2497BB87AA8710C088EC90E09D8793
:101BE0008C878C859D850197F1F79D878C870000F8
:101BF0008A859B8501979B878A878A859B85009725
:101C000061F71DC06E817F81888599850E94881C3F
:101C10002A966CAF7DAF8EAF9FAF2A972896EEAD18
:101C2000FFAD2897FB87EA878A859B859F878E87EC
:101C30008E859F850197F1F79F878E8700008CA581
:101C4000282F30E04DE0429FC001439F900D1124AA
:101C50008E579F4FDC018C9160E00E947900D8C1C3
:101C6000198227C08DA582958F70882F90E02981D9
:101C7000222F30E002C0959587952A95E2F7782FBC
:101C800071708CA5482F50E08981882F90E06DE01D
:101C9000649F9001659F300D1124820F931F885817
:101CA0009F4FFC018081672F0E94790089818F5F9F
:101CB000898389818330B1F2A8F28CA5282F30E086
:101CC0004DE0429FC001439F900D11248E579F4FBE
:101CD000DC018C9161E00E94790080E090E0A0E05E
:101CE000B0E4888B998BAA8BBB8B20E030E04AEF65
:101CF00054E4688979898A899B890E946E1D2E9691
:101D00006CAF7DAF8EAF9FAF2E972E968CAD9DADF5
:101D1000AEADBFAD2E978C8B9D8BAE8BBF8B20E075
:101D200030E040E85FE36C897D898E899F890E945D
:101D3000111C88232CF481E090E0998F888F62C079
:101D400020E03FEF4FE757E46C897D898E899F89BA
:101D50000E94691D882309F00CF442C020E030E0A5
:101D600040E251E4688979898A899B890E946E1DC5
:101D700062966CAF7DAF8EAF9FAF629762968CAD6F
:101D80009DADAEADBFAD62978AAB9BABACABBDAB0F
:101D90006AA97BA98CA99DA90E94881C66966CAF34
:101DA0007DAF8EAF9FAF66976496AEADBFAD6497C3
:101DB000B98FA88F10C088EC90E09B8F8A8F8A8D96
:101DC0009B8D0197F1F79B8F8A8F0000888D998DED
:101DD0000197998F888F888D998D009761F71DC025
:101DE0006C897D898E899F890E94881C6A966CAF58
:101DF0007DAF8EAF9FAF6A976896EEADFFAD6897E7
:101E0000F98FE88F888D998D9D8F8C8F8C8D9D8D0E
:101E10000197F1F79D8F8C8F00008CA5282F30E063
:101E20004DE0429FC001439F900D11248E579F4F5C
:101E3000DC018C9160E00E947900198225C08DA59B
:101E4000882F90E02981222F30E002C09595879558
:101E50002A95E2F7782F71708CA5482F50E0898180
:101E6000882F90E06DE0649F9001659F300D1124F4
:101E7000820F931F88589F4FFC018081672F0E941B
:101E8000790089818F5F898389818330C1F2B8F2BB
:101E90008CA5282F30E04DE0429FC001439F900D5C
:101EA00011248E579F4FDC018C9161E00E947900D4
:101EB00080E090E0A0E0B0E48E8F9F8FA8A3B9A34C
:101EC00020E030E04AEF54E46E8D7F8D88A199A127
:101ED0000E946E1D6E966CAF7DAF8EAF9FAF6E97FA
:101EE0006E968CAD9DADAEADBFAD6E978AA39BA334
:101EF000ACA3BDA320E030E040E85FE36AA17BA192
:101F00008CA19DA10E94111C88232CF481E090E0FB
:101F10009FA38EA362C020E03FEF4FE757E46AA182
:101F20007BA18CA19DA10E94691D882309F00CF45E
:101F300042C020E030E040E251E46E8D7F8D88A108
:101F400099A10E946E1DA2966CAF7DAF8EAF9FAF20
:101F5000A297A2968CAD9DADAEADBFADA2978EAB54
:101F60009FABA8AFB9AF6EA97FA988AD99AD0E940C
:101F7000881CA6966CAF7DAF8EAF9FAFA697A49638
:101F8000AEADBFADA497BFA3AEA310C088EC90E0E8
:101F900099A788A788A599A50197F1F799A788A778
:101FA00000008EA19FA101979FA38EA38EA19FA148
:101FB000009761F71DC06AA17BA18CA19DA10E9421
:101FC000881CAA966CAF7DAF8EAF9FAFAA97A896DC
:101FD000EEADFFADA897FFA3EEA38EA19FA19BA797
:101FE0008AA78AA59BA50197F1F79BA78AA700005E
:101FF0008CA5282F30E04DE0429FC001439F900DFB
:1020000011248E579F4FDC018C9160E00E94790073
:102010000000C759DF4F0FB6F894DEBF0FBECDBF2B
:10202000DF91CF910895CF93DF93CDB7DEB7C95637
:10203000D1090FB6F894DEBF0FBECDBF8CA76DA738
:1020400019828CA5282F30E04DE0429FC001439FAC
:10205000900D112480589F4FDC018C9160E00E940C
:1020600079008CA5282F30E04DE0429FC001439FAE
:10207000900D11248F579F4FFC01808160E00E94DA
:1020800079008CA5282F30E04DE0429FC001439F8E
:10209000900D11248D579F4FDC018C91813009F0F8
:1020A000E8C0198225C08DA5882F90E02981222FB4
:1020B00030E002C0959587952A95E2F7782F7170E8
:1020C0008CA5482F50E08981882F90E06DE0649FB7
:1020D0009001659F300D1124820F931F88589F4FE8
:1020E000FC018081672F0E94790089818F5F89833D
:1020F00089818730C1F2B8F28CA5282F30E04DE0FD
:10210000429FC001439F900D11248E579F4FDC01C9
:102110008C9161E00E94790080E090E0A0E0B0E462
:102120008A839B83AC83BD8320E030E04AEF54E494
:102130006A817B818C819D810E946E1D6AAF7BAF1D
:102140008CAF9DAF8AAD9BADACADBDAD8E839F8393
:10215000A887B98720E030E040E85FE36E817F81A7
:10216000888599850E94111C88232CF481E090E0D9
:102170009B878A8762C020E03FEF4FE757E46E817C
:102180007F81888599850E94691D882309F00CF458
:1021900042C020E030E040E251E46A817B818C81E2
:1021A0009D810E946E1D22966CAF7DAF8EAF9FAF5A
:1021B000229722968CAD9DADAEADBFAD22978EA776
:1021C0009FA7A8ABB9AB6EA57FA588A999A90E94C6
:1021D000881C26966CAF7DAF8EAF9FAF2697249656
:1021E000AEADBFAD2497BB87AA8710C088EC90E046
:1021F0009D878C878C859D850197F1F79D878C87BE
:1022000000008A859B8501979B878A878A859B85A5
:10221000009761F71DC06E817F81888599850E9436
:10222000881C2A966CAF7DAF8EAF9FAF2A972896F9
:10223000EEADFFAD2897FB87EA878A859B859F8750
:102240008E878E859F850197F1F79F878E87000087
:102250008CA5282F30E04DE0429FC001439F900D98
:1022600011248E579F4FDC018C9160E00E94790011
:10227000D8C1198227C08DA582958F70882F90E0D4
:102280002981222F30E002C0959587952A95E2F7A3
:10229000782F71708CA5482F50E08981882F90E0AD
:1022A0006DE0649F9001659F300D1124820F931F94
:1022B00088589F4FFC018081672F0E947900898197
:1022C0008F5F898389818330B1F2A8F28CA5282F92
:1022D00030E04DE0429FC001439F900D11248E5786
:1022E0009F4FDC018C9161E00E94790080E090E0DA
:1022F000A0E0B0E4888B998BAA8BBB8B20E030E008
:102300004AEF54E4688979898A899B890E946E1D05
:102310002E966CAF7DAF8EAF9FAF2E972E968CAD65
:102320009DADAEADBFAD2E978C8B9D8BAE8BBF8B15
:1023300020E030E040E85FE36C897D898E899F89E9
:102340000E94111C88232CF481E090E0998F888FE3
:1023500062C020E03FEF4FE757E46C897D898E89AA
:102360009F890E94691D882309F00CF442C020E077
:1023700030E040E251E4688979898A899B890E942A
:102380006E1D62966CAF7DAF8EAF9FAF6297629607
:102390008CAD9DADAEADBFAD62978AAB9BABACAB28
:1023A000BDAB6AA97BA98CA99DA90E94881C6696D1
:1023B0006CAF7DAF8EAF9FAF66976496AEADBFAD8D
:1023C0006497B98FA88F10C088EC90E09B8F8A8F9C
:1023D0008A8D9B8D0197F1F79B8F8A8F0000888DE6
:1023E000998D0197998F888F888D998D009761F7C6
:1023F0001DC06C897D898E899F890E94881C6A9680
:102400006CAF7DAF8EAF9FAF6A976896EEADFFADB4
:102410006897F98FE88F888D998D9D8F8C8F8C8D23
:102420009D8D0197F1F79D8F8C8F00008CA5282F33
:1024300030E04DE0429FC001439F900D11248E5724
:102440009F4FDC018C9160E00E947900198225C0C9
:102450008DA5882F90E02981222F30E002C095952C
:1024600087952A95E2F7782F71708CA5482F50E058
:102470008981882F90E06DE0649F9001659F300D09
:102480001124820F931F88589F4FFC018081672F72
:102490000E94790089818F5F898389818330C1F2AD
:1024A000B8F28CA5282F30E04DE0429FC001439F39
:1024B000900D11248E579F4FDC018C9161E00E949A
:1024C000790080E090E0A0E0B0E48E8F9F8FA8A319
:1024D000B9A320E030E04AEF54E46E8D7F8D88A1EF
:1024E00099A10E946E1D6E966CAF7DAF8EAF9FAFAF
:1024F0006E976E968CAD9DADAEADBFAD6E978AA357
:102500009BA3ACA3BDA320E030E040E85FE36AA159
:102510007BA18CA19DA10E94111C88232CF481E039
:1025200090E09FA38EA362C020E03FEF4FE757E407
:102530006AA17BA18CA19DA10E94691D882309F03D
:102540000CF442C020E030E040E251E46E8D7F8D1B
:1025500088A199A10E946E1DA2966CAF7DAF8EAF2F
:102560009FAFA297A2968CAD9DADAEADBFADA29729
:102570008EAB9FABA8AFB9AF6EA97FA988AD99AD5F
:102580000E94881CA6966CAF7DAF8EAF9FAFA697BA
:10259000A496AEADBFADA497BFA3AEA310C088EC08
:1025A00090E099A788A788A599A50197F1F799A721
:1025B00088A700008EA19FA101979FA38EA38EA143
:1025C0009FA1009761F71DC06AA17BA18CA19DA16D
:1025D0000E94881CAA966CAF7DAF8EAF9FAFAA9762
:1025E000A896EEADFFADA897FFA3EEA38EA19FA185
:1025F0009BA78AA78AA59BA50197F1F79BA78AA706
:1026000000008CA5282F30E04DE0429FC001439F81
:10261000900D11248E579F4FDC018C9160E00E9439
:1026200079000000C759DF4F0FB6F894DEBF0FBE28
:10263000CDBFDF91CF910895CF93DF9300D000D02D
:10264000CDB7DEB78A836B834C838B818295880FED
:10265000880F807C9C81890F898389818068898328
:1026600069818A810E94131000000F900F900F90D3
:102670000F90DF91CF910895CF93DF9300D000D0DA
:10268000CDB7DEB78A837C836B831982198210C031
:102690008981882F90E02B813C81820F931FFC0160
:1026A0008081682F8A810E940A0D89818F5F8983CA
:1026B0008981882F90E02B813C81820F931FFC0140
:1026C0008081882329F7000000000F900F900F9061
:1026D0000F90DF91CF910895CF93DF9300D0CDB7C6
:1026E000DEB789836A838A81805D682F89810E9431
:1026F0000A0D00000F900F90DF91CF910895CF92B7
:10270000DF92EF92FF920F931F93CF93DF93CDB79A
:10271000DEB7A1970FB6F894DEBF0FBECDBF8D8395
:102720004E835F836887798781E090E0A0E0B0E026
:1027300089839A83AB83BC838E819F81A885B98569
:102740000097A105B10509F4C0C08E819F81A885BD
:10275000B985BB230CF06AC06DE28D810E940A0D21
:102760008E819F81A885B985B095A095909581951A
:102770009F4FAF4FBF4F8E839F83A887B98756C0A7
:1027800049815A816B817C81DB01CA01880F991FC5
:10279000AA1FBB1F880F991FAA1FBB1F840F951F5D
:1027A000A61FB71F880F991FAA1FBB1F6C017D01B1
:1027B0008E819F81A885B9858A879B87AC87BD87D5
:1027C0000AE010E020E030E06A857B858C859D85FD
:1027D000A90198010E94F21B6E877F87888B998BD5
:1027E0008E859F85A889B9898C0D9D1DAE1DBF1D45
:1027F00089839A83AB83BC838E819F81A885B985A9
:102800008A8B9B8BAC8BBD8B0AE010E020E030E024
:102810006A897B898C899D89A90198010E94F21B94
:10282000DA01C9018E839F83A887B9878E819F8132
:10283000A885B9850097A105B10509F0A1CF3AC0D7
:1028400089819A81AB81BC818E8B9F8BA88FB98F38
:102850000AE010E020E030E06E897F89888D998D54
:10286000A90198010E94D01B6A8F7B8F8C8F9D8F4E
:102870008A8D9B8DAC8DBD8D682F8D810E946C13D0
:1028800089819A81AB81BC818E8F9F8FA8A3B9A3C8
:102890000AE010E020E030E06E8D7F8D88A199A1E4
:1028A000A90198010E94D01BDA01C90189839A838A
:1028B000AB83BC8389819A81AB81BC8181309105D6
:1028C000A105B10509F0BCCF04C060E08D810E9474
:1028D0006C130000A1960FB6F894DEBF0FBECDBFFB
:1028E000DF91CF911F910F91FF90EF90DF90CF90EC
:1028F0000895CF93DF930F92CDB7DEB78983898197
:10290000853009F0C8F58981282F30E0C901880F8A
:10291000991F880F991F880F991F820F931F845743
:102920009F4FFC0180818130A1F48981282F30E004
:10293000C901880F991F880F991F880F991F820F4F
:10294000931F83579F4FFC01808161E00E947900B3
:1029500013C08981282F30E0C901880F991F880F83
:10296000991F880F991F820F931F83579F4FFC0158
:10297000808160E00E94790000000F90DF91CF918C
:102980000895CF93DF930F92CDB7DEB78983898106
:10299000853009F0C8F58981282F30E0C901880FFA
:1029A000991F880F991F880F991F820F931F8457B3
:1029B0009F4FFC0180818130A1F48981282F30E074
:1029C000C901880F991F880F991F880F991F820FBF
:1029D000931F83579F4FFC01808160E00E94790024
:1029E00013C08981282F30E0C901880F991F880FF3
:1029F000991F880F991F820F931F83579F4FFC01C8
:102A0000808161E00E94790000000F90DF91CF91FA
:102A10000895CF93DF9300D00F92CDB7DEB78A83AE
:102A20006B8319828A81853011F008F083C08B8115
:102A3000893011F008F07EC08A81282F30E0C9016A
:102A4000880F991F880F991F880F991F820F931F56
:102A500084579F4FFC0180818130C9F5198232C0B3
:102A60008B81882F90E085549F4FFC018081882FB7
:102A700090E02981222F30E002C0959587952A9514
:102A8000E2F78170992721E0009709F020E0622F9A
:102A90008A81282F30E08981482F50E0C901880FB2
:102AA000991F880F991F880F991F820F931F840FFA
:102AB000951F8B579F4FFC0180810E94790089816F
:102AC0008F5F89838981863059F250F233C0198231
:102AD0002DC08B81882F90E085549F4FFC01808111
:102AE000882F90E02981222F30E002C095958795AC
:102AF0002A95E2F7682F61708A81282F30E089815A
:102B0000482F50E0C901880F991F880F991F880F1F
:102B1000991F820F931F840F951F8B579F4FFC01A6
:102B200080810E94790089818F5F898389818630C5
:102B300081F278F200000F900F900F90DF91CF910B
:102B40000895CF93DF93CDB7DEB783E590E0FC0126
:102B5000208183E590E02F7BFC01208383E590E0DA
:102B6000FC01208183E590E0277FFC01208383E541
:102B700090E0FC01208183E590E02F7CFC01208324
:102B800023E530E083E590E0F9012081FC0120831A
:102B900089E590E0FC01208189E590E02E7FFC0131
:102BA000208389E590E0FC01208189E590E02D7F7C
:102BB000FC01208382E00E94E1150000DF91CF91AB
:102BC0000895CF93DF930F92CDB7DEB789838981C4
:102BD000873009F098F483E590E0FC01208183E5DB
:102BE00090E0287FFC01208383E590E0FC013081A8
:102BF00083E590E02981232BFC01208300000F90C6
:102C0000DF91CF910895CF93DF93CDB7DEB783E502
:102C100090E0FC01208183E590E0287FFC01208387
:102C20000000DF91CF910895CF93DF93CDB7DEB74A
:102C300089E590E0FC01208189E590E02160FC01BC
:102C400020830000DF91CF910895CF93DF93CDB71C
:102C5000DEB789E590E0FC01208189E590E02E7FD8
:102C6000FC0120830000DF91CF910895CF93DF9383
:102C7000CDB7DEB789E590E0FC01208189E590E0E1
:102C80002260FC0120830000DF91CF910895CF9353
:102C9000DF93CDB7DEB789E590E0FC01208189E5BF
:102CA00090E02D7FFC0120830000DF91CF910895FB
:102CB000CF93DF9300D0CDB7DEB79A838983898124
:102CC0009A819093FF008093FE0000000F900F9078
:102CD000DF91CF910895CF93DF9300D0CDB7DEB7CA
:102CE0009A83898389819A8190930101809300015D
:102CF00000000F900F90DF91CF910895CF93DF9355
:102D00000F92CDB7DEB7898382E590E02981FC017F
:102D1000208300000F90DF91CF910895CF93DF9330
:102D20000F92CDB7DEB789838CE590E02981FC0155
:102D3000208300000F90DF91CF910895CF93DF9310
:102D4000CDB7DEB782E590E0FC018081DF91CF91C5
:102D50000895CF93DF93CDB7DEB7AE970FB6F89453
:102D6000DEBF0FBECDBF6F87788B898B9A8B88E0D3
:102D700090E09E838D8380E49FE12D813E81B901A7
:102D80000E94BC1BCB01892F99279C0140E050E099
:102D90002B8F3C8F4D8F5E8F6B8D7C8D8D8D9E8D9F
:102DA0000E94B71C6F8F78A389A39AA38F8D98A1D7
:102DB000A9A1BAA18F839887A987BA872F8138855F
:102DC00049855A8560E070E080E89FE30E94161C08
:102DD0006BA37CA38DA39EA32BA13CA14DA15EA1BF
:102DE0002B873C874D875E876F85788989899A898B
:102DF0000E94B71C6B8B7C8B8D8B9E8B2B853C85AF
:102E00004D855E856B897C898D899E890E94161C03
:102E10006FA378A789A79AA78FA198A5A9A5BAA5F6
:102E20008F8B988FA98FBA8F6F89788D898D9A8DA6
:102E30000E94881C6BA77CA78DA79EA72BA53CA5ED
:102E40004DA55EA529833A834B835C8389819A8152
:102E5000AB81BC819927AA27BB270097A105B105A3
:102E600079F0898181950E947E1689819A81AB8152
:102E7000BC810196A11DB11D89839A83AB83BC835C
:102E800082E00E94E1151FC0000088E590E0DC01AF
:102E90008C91882F90E0817099270097B1F388E595
:102EA00090E0FC01208188E590E02160DC012C931A
:102EB00089819A81AB81BC810197A109B10989837C
:102EC0009A83AB83BC8389819A81AB81BC81009753
:102ED000A105B105C9F60E9403160000AE960FB613
:102EE000F894DEBF0FBECDBFDF91CF9108951F9242
:102EF0000F920FB60F9211242F933F934F935F932E
:102F00006F937F938F939F93AF93BF93EF93FF93B1
:102F1000CF93DF93CDB7DEB78091FE009091FF0095
:102F2000009731F08091FE009091FF00FC0109951F
:102F30000000DF91CF91FF91EF91BF91AF919F91F1
:102F40008F917F916F915F914F913F912F910F9052
:102F50000FBE0F901F9018951F920F920FB60F92F1
:102F600011242F933F934F935F936F937F938F938E
:102F70009F93AF93BF93EF93FF93CF93DF93CDB71F
:102F8000DEB78091000190910101009731F08091AE
:102F9000000190910101FC0109950000DF91CF91A2
:102FA000FF91EF91BF91AF919F918F917F916F9121
:102FB0005F914F913F912F910F900FBE0F901F90F7
:102FC0001895CF93DF93CDB7DEB785E490E0FC0191
:102FD000208185E490E02F7BFC01208385E490E054
:102FE000FC01208185E490E0277FFC01208382E4BE
:102FF00090E0FC01208182E490E02860FC012083C5
:1030000089E590E0FC01208189E590E02064FC01E5
:10301000208389E590E0FC01208189E590E02F770D
:10302000FC01208385E490E0FC01208185E490E0B0
:103030002F7CFC01208325E430E085E490E0F90159
:103040002081FC01208385E00E942A180000DF9186
:10305000CF910895CF93DF930F92CDB7DEB78983D9
:103060008981873009F098F485E490E0FC012081A3
:1030700085E490E0287FFC01208385E490E0FC015A
:10308000308185E490E02981232BFC01208300001E
:103090000F90DF91CF910895CF93DF93CDB7DEB737
:1030A00085E490E0FC01208185E490E0287FFC012C
:1030B00020830000DF91CF910895CF93DF93CDB7A8
:1030C000DEB789E590E0FC01208189E590E020648D
:1030D000FC0120830000DF91CF910895CF93DF930F
:1030E000CDB7DEB789E590E0FC01208189E590E06D
:1030F0002F7BFC0120830000DF91CF910895CF93B7
:10310000DF93CDB7DEB789E590E0FC01208189E54A
:1031100090E02068FC0120830000DF91CF910895AA
:10312000CF93DF93CDB7DEB789E590E0FC01208136
:1031300089E590E02F77FC0120830000DF91CF919B
:103140000895CF93DF9300D0CDB7DEB79A838983FC
:1031500089819A81909303018093020100000F906E
:103160000F90DF91CF910895CF93DF9300D0CDB72B
:10317000DEB79A83898389819A8190930501809330
:10318000040100000F900F90DF91CF910895CF932D
:10319000DF930F92CDB7DEB78983000082E490E021
:1031A000FC01808186958695882F90E08170992713
:1031B0008130910599F384E490E02981FC0120831A
:1031C00000000F90DF91CF910895CF93DF930F927E
:1031D000CDB7DEB78983000082E490E0FC018081F6
:1031E0008695882F90E08170992781309105A1F311
:1031F00083E490E02981FC01208300000F90DF919F
:10320000CF910895CF93DF93CDB7DEB784E490E0FC
:10321000FC018081DF91CF9108951F920F920FB62C
:103220000F9211242F933F934F935F936F937F934C
:103230008F939F93AF93BF93EF93FF93CF93DF93BE
:10324000CDB7DEB78091020190910301009731F074
:103250008091020190910301FC0109950000DF912A
:10326000CF91FF91EF91BF91AF919F918F917F91FE
:103270006F915F914F913F912F910F900FBE0F90E3
:103280001F9018951F920F920FB60F9211242F9333
:103290003F934F935F936F937F938F939F93AF93DE
:1032A000BF93EF93FF93CF93DF93CDB7DEB78091BA
:1032B000040190910501009731F0809104019091F3
:1032C0000501FC0109950000DF91CF91FF91EF917D
:1032D000BF91AF919F918F917F916F915F914F912E
:1032E0003F912F910F900FBE0F901F901895CF9385
:1032F000DF93CDB7DEB70E9449000E948F030E9482
:10330000EB020E94C9020E94A1150E9403168BE9DC
:1033100099E10E94A1180E94E1170E946E180E9474
:103320004C180E949C1A85E00E942A180E945D1881
:103330000E94D319FDCFCF93DF93CDB7DEB7809135
:1033400008018B3309F058F5809108018F5F809355
:103350000801809108018C3311F5109208018091C9
:1033600007018B3309F0D8F4809107018F5F8093B8
:103370000701809107018C3391F41092070180912D
:103380000601873109F058F4809106018F5F809320
:10339000060180910601883111F4109206010000A7
:1033A000DF91CF910895CF93DF93CDB7DEB7209112
:1033B00008018DEC289F812D1124982F96959695C4
:1033C0009695892F880F880F890F880F922F981B49
:1033D000692F80E00E94091580E00E94791464E062
:1033E00070E080E090E00E94A91680E00E94C11485
:1033F000909108018DEC989F812D112486958695DA
:103400008695682F81E00E94091581E00E94791459
:1034100064E070E080E090E00E94A91681E00E94E4
:10342000C114209107018DEC289F812D1124982F24
:10343000969596959695892F880F880F890F880FF6
:10344000922F981B692F82E00E94091582E00E944A
:10345000791464E070E080E090E00E94A91682E0B8
:103460000E94C114909107018DEC989F812D112429
:10347000869586958695682F83E00E94091583E0DE
:103480000E94791464E070E080E090E00E94A91648
:1034900083E00E94C114209106018DEC289F812DAC
:1034A0001124982F969596959695892F880F880FB9
:1034B000890F880F922F981B692F84E00E940915AD
:1034C00084E00E94791464E070E080E090E00E9463
:1034D000A91684E00E94C114909106018DEC989F7A
:1034E000812D1124869586958695682F85E00E940A
:1034F000091585E00E94791464E070E080E090E0B6
:103500000E94A91685E00E94C1140000DF91CF91AE
:103510000895CF93DF930F92CDB7DEB78FEF8983F6
:1035200003C00E941D03898389818F3FD1F3898164
:103530000F90DF91CF910895CF93DF9300D0CDB757
:10354000DEB710920601109207011092080119824D
:103550001A821092060165EC70E080E00E943C1334
:10356000198223C00E94891A8A838A81893309F0CB
:10357000B0F48A818F3299F090F090910601892FF2
:10358000880F880F890F880F982F8A81890F8053A1
:10359000809306016A8180E00E940A0D03C0898140
:1035A0008150898389818F5F898389818130D1F2BC
:1035B000C8F2809106018831A1F098F061E080E0C6
:1035C0000E9413106DEC70E080E00E943C1364EFE9
:1035D00071E080E090E00E94A91661E080E00E9426
:1035E000131080910601883111F008F0B2CF6CE21F
:1035F00071E080E090E00E94A91661E080E00E9406
:103600001310109207016BED70E080E00E943C13F4
:10361000198223C00E94891A8A838A81893309F01A
:10362000B0F48A818F3299F090F090910701892F40
:10363000880F880F890F880F982F8A81890F8053F0
:10364000809307016A8180E00E940A0D03C089818E
:103650008150898389818F5F898389818130D1F20B
:10366000C8F2809107018C33A1F098F061E080E00E
:103670000E9413106DEC70E080E00E943C1364EF38
:1036800071E080E090E00E94A91661E080E00E9475
:103690001310809107018C3311F008F0B2CF6CE267
:1036A00071E080E090E00E94A91661E080E00E9455
:1036B00013101092080166EE70E080E00E943C1347
:1036C000198223C00E94891A8A838A81893309F06A
:1036D000B0F48A818F3299F090F090910801892F8F
:1036E000880F880F890F880F982F8A81890F805340
:1036F000809308016A8180E00E940A0D03C08981DD
:103700008150898389818F5F898389818130D1F25A
:10371000C8F2809108018C33A1F098F061E080E05C
:103720000E9413106DEC70E080E00E943C1364EF87
:1037300071E080E090E00E94A91661E080E00E94C4
:103740001310809108018C3311F008F0B2CF6CE2B5
:1037500071E080E090E00E94A91661E080E00E94A4
:10376000131061EF70E080E00E943C1300000F90A6
:103770000F90DF91CF910895AA1BBB1B51E107C0A9
:10378000AA1FBB1FA617B70710F0A61BB70B881FF1
:10379000991F5A95A9F780959095BC01CD01089580
:1037A000A1E21A2EAA1BBB1BFD010DC0AA1FBB1F45
:1037B000EE1FFF1FA217B307E407F50720F0A21BB7
:1037C000B30BE40BF50B661F771F881F991F1A9424
:1037D00069F760957095809590959B01AC01BD014E
:1037E000CF010895052E97FB1EF400940E94091C3A
:1037F00057FD07D00E94D01B07FC03D04EF40C9459
:10380000091C50954095309521953F4F4F4F5F4F84
:10381000089590958095709561957F4F8F4F9F4F3C
:1038200008950E94F41C08F481E008950E942A1C67
:103830000C942F1D0E94281D58F00E94211D40F05D
:1038400029F45F3F29F00C94181D51110C94631D4D
:103850000C941E1D0E94401D68F39923B1F355235B
:1038600091F3951B550BBB27AA2762177307840793
:1038700038F09F5F5F4F220F331F441FAA1FA9F329
:1038800035D00E2E3AF0E0E832D091505040E69517
:10389000001CCAF72BD0FE2F29D0660F771F881F78
:1038A000BB1F261737074807AB07B0E809F0BB0B6B
:1038B000802DBF01FF2793585F4F3AF09E3F51057F
:1038C00078F00C94181D0C94631D5F3FE4F3983E50
:1038D000D4F3869577956795B795F7959F5FC9F768
:1038E000880F911D9695879597F90895E1E0660FE9
:1038F000771F881FBB1F621773078407BA0720F062
:10390000621B730B840BBA0BEE1F88F7E0950895CA
:103910000E94481D88F09F5798F0B92F9927B751FA
:10392000B0F0E1F0660F771F881F991F1AF0BA9563
:10393000C9F714C0B13091F00E94621DB1E0089542
:103940000C94621D672F782F8827B85F39F0B93F34
:10395000CCF3869577956795B395D9F73EF4909516
:103960008095709561957F4F8F4F9F4F0895E89494
:1039700009C097FB3EF490958095709561957F4FB7
:103980008F4F9F4F9923A9F0F92F96E9BB27939565
:10399000F695879577956795B795F111F8CFFAF475
:1039A000BB0F11F460FF1BC06F5F7F4F8F4F9F4FA6
:1039B00016C0882311F096E911C0772321F09EE804
:1039C000872F762F05C0662371F096E8862F70E06A
:1039D00060E02AF09A95660F771F881FDAF7880F44
:1039E0009695879597F90895990F0008550FAA0B9A
:1039F000E0E8FEEF16161706E807F907C0F0121602
:103A00001306E407F50798F0621B730B840B950B04
:103A100039F40A2661F0232B242B252B21F4089559
:103A20000A2609F4A140A6958FEF811D811D0895F6
:103A300097F99F6780E870E060E008959FEF80EC61
:103A4000089500240A941616170618060906089504
:103A500000240A9412161306140605060895092E6A
:103A60000394000C11F4882352F0BB0F40F4BF2BD9
:103A700011F460FF04C06F5F7F4F8F4F9F4F089519
:103A800057FD9058440F551F59F05F3F71F047950F
:103A9000880F97FB991F61F09F3F79F087950895F4
:103AA000121613061406551FF2CF4695F1DF08C013
:103AB000161617061806991FF1CF86957105610530
:103AC00008940895E894BB2766277727CB0197F9D8
:103AD00008950E94F41C08F48FEF08950E94811D40
:103AE0000C942F1D0E94211D38F00E94281D20F0EB
:103AF000952311F00C94181D0C941E1D11240C9488
:103B0000631D0E94401D70F3959FC1F3950F50E017
:103B1000551F629FF001729FBB27F00DB11D639F7F
:103B2000AA27F00DB11DAA1F649F6627B00DA11D25
:103B3000661F829F2227B00DA11D621F739FB00DCB
:103B4000A11D621F839FA00D611D221F749F33273B
:103B5000A00D611D231F849F600D211D822F762FD4
:103B60006A2F11249F5750409AF0F1F088234AF0B1
:103B7000EE0FFF1FBB1F661F771F881F915050401D
:103B8000A9F79E3F510580F00C94181D0C94631DFD
:103B90005F3FE4F3983ED4F3869577956795B795A4
:103BA000F795E7959F5FC1F7FE2B880F911D9695BE
:0A3BB000879597F90895F894FFCF68
:103BBA0000010203040506073738392F3435362A3F
:103BCA003132332D43302E2B08090A0B0000000036
:103BDA000C0D0E002F18191A1B1C1D1E0010181987
:103BEA001A1B1C1D1E001118191A1B1C1D1E00125F
:103BFA0018191A1B1C1D1E001318191A1B1C1D1E2E
:103C0A00001418191A1B1C1D1E00153F065B4F666F
:103C1A006D7D077F6F486F7572203A200057726F6B
:103C2A006E6720496E7075742021004D696E757437
:103C3A006573203A20005365636F6E6473203A20DF
:0E3C4A0000202020205469632054616B00008C
:00000001FF
